{
  "_format": "hh-sol-artifact-1",
  "contractName": "DistributionExpressExecutable",
  "sourceName": "examples/evm/call-contract-with-token-express/DistributionExpressExecutable.sol",
  "abi": [
    {
      "inputs": [
        {
          "internalType": "address",
          "name": "gateway_",
          "type": "address"
        },
        {
          "internalType": "address",
          "name": "gasReceiver_",
          "type": "address"
        }
      ],
      "stateMutability": "nonpayable",
      "type": "constructor"
    },
    {
      "inputs": [],
      "name": "InvalidAddress",
      "type": "error"
    },
    {
      "inputs": [],
      "name": "NotApprovedByGateway",
      "type": "error"
    },
    {
      "inputs": [],
      "name": "contractId",
      "outputs": [
        {
          "internalType": "bytes32",
          "name": "",
          "type": "bytes32"
        }
      ],
      "stateMutability": "pure",
      "type": "function"
    },
    {
      "inputs": [],
      "name": "enableExpressCallWithToken",
      "outputs": [
        {
          "internalType": "bool",
          "name": "",
          "type": "bool"
        }
      ],
      "stateMutability": "nonpayable",
      "type": "function"
    },
    {
      "inputs": [
        {
          "internalType": "bytes32",
          "name": "",
          "type": "bytes32"
        },
        {
          "internalType": "string",
          "name": "sourceChain",
          "type": "string"
        },
        {
          "internalType": "string",
          "name": "sourceAddress",
          "type": "string"
        },
        {
          "internalType": "bytes",
          "name": "payload",
          "type": "bytes"
        }
      ],
      "name": "execute",
      "outputs": [],
      "stateMutability": "nonpayable",
      "type": "function"
    },
    {
      "inputs": [
        {
          "internalType": "bytes32",
          "name": "",
          "type": "bytes32"
        },
        {
          "internalType": "string",
          "name": "sourceChain",
          "type": "string"
        },
        {
          "internalType": "string",
          "name": "sourceAddress",
          "type": "string"
        },
        {
          "internalType": "bytes",
          "name": "payload",
          "type": "bytes"
        },
        {
          "internalType": "string",
          "name": "tokenSymbol",
          "type": "string"
        },
        {
          "internalType": "uint256",
          "name": "amount",
          "type": "uint256"
        }
      ],
      "name": "executeWithToken",
      "outputs": [],
      "stateMutability": "nonpayable",
      "type": "function"
    },
    {
      "inputs": [],
      "name": "gasService",
      "outputs": [
        {
          "internalType": "contract IAxelarGasService",
          "name": "",
          "type": "address"
        }
      ],
      "stateMutability": "view",
      "type": "function"
    },
    {
      "inputs": [],
      "name": "gateway",
      "outputs": [
        {
          "internalType": "contract IAxelarGateway",
          "name": "",
          "type": "address"
        }
      ],
      "stateMutability": "view",
      "type": "function"
    },
    {
      "inputs": [
        {
          "internalType": "string",
          "name": "destinationChain",
          "type": "string"
        },
        {
          "internalType": "string",
          "name": "destinationAddress",
          "type": "string"
        },
        {
          "internalType": "address[]",
          "name": "destinationAddresses",
          "type": "address[]"
        },
        {
          "internalType": "string",
          "name": "symbol",
          "type": "string"
        },
        {
          "internalType": "uint256",
          "name": "amount",
          "type": "uint256"
        }
      ],
      "name": "sendToMany",
      "outputs": [],
      "stateMutability": "payable",
      "type": "function"
    }
  ],
  "bytecode": "0x60c060405234801561001057600080fd5b50604051610ec5380380610ec583398101604081905261002f9161008b565b816001600160a01b0381166100575760405163e6c4247b60e01b815260040160405180910390fd5b6001600160a01b039081166080521660a052506100be565b80516001600160a01b038116811461008657600080fd5b919050565b6000806040838503121561009e57600080fd5b6100a78361006f565b91506100b56020840161006f565b90509250929050565b60805160a051610dc06101056000396000818161013a015261043b0152600081816087015281816101fa01528181610352015281816104e1015261056e0152610dc06000f3fe6080604052600436106100705760003560e01c8063491606581161004e57806349160658146101045780636a22d8cc146101285780638291286c1461015c578063fbd9497b1461019757600080fd5b8063116191b6146100755780631a98b2e0146100c65780631c02ac87146100e8575b600080fd5b34801561008157600080fd5b506100a97f000000000000000000000000000000000000000000000000000000000000000081565b6040516001600160a01b0390911681526020015b60405180910390f35b3480156100d257600080fd5b506100e66100e1366004610741565b6101aa565b005b3480156100f457600080fd5b50604051600181526020016100bd565b34801561011057600080fd5b506100e661011f36600461081b565b50505050505050565b34801561013457600080fd5b506100a97f000000000000000000000000000000000000000000000000000000000000000081565b34801561016857600080fd5b506040517fab94838a8eec6ed2ca88d4bcdec4710ce532bd8fe349148a687870d8f1fd5db481526020016100bd565b6100e66101a5366004610976565b6101c7565b6101bb89898989898989898961055a565b50505050505050505050565b6040517f935b13f60000000000000000000000000000000000000000000000000000000081526000906001600160a01b037f0000000000000000000000000000000000000000000000000000000000000000169063935b13f69061022f908690600401610aaf565b60206040518083038186803b15801561024757600080fd5b505afa15801561025b573d6000803e3d6000fd5b505050506040513d601f19601f8201168201806040525081019061027f9190610ae1565b6040517f23b872dd000000000000000000000000000000000000000000000000000000008152336004820152306024820152604481018490529091506001600160a01b038216906323b872dd90606401602060405180830381600087803b1580156102e957600080fd5b505af11580156102fd573d6000803e3d6000fd5b505050506040513d601f19601f820116820180604052508101906103219190610afe565b506040517f095ea7b30000000000000000000000000000000000000000000000000000000081526001600160a01b037f0000000000000000000000000000000000000000000000000000000000000000811660048301526024820184905282169063095ea7b390604401602060405180830381600087803b1580156103a557600080fd5b505af11580156103b9573d6000803e3d6000fd5b505050506040513d601f19601f820116820180604052508101906103dd9190610afe565b50600085856040516020016103f3929190610b20565b60408051601f19818403018152919052905034156104b1576040517f2e9b74700000000000000000000000000000000000000000000000000000000081526001600160a01b037f00000000000000000000000000000000000000000000000000000000000000001690632e9b747090349061047e9030908d908d9088908c908c903390600401610b6e565b6000604051808303818588803b15801561049757600080fd5b505af11580156104ab573d6000803e3d6000fd5b50505050505b6040517fb54170840000000000000000000000000000000000000000000000000000000081526001600160a01b037f0000000000000000000000000000000000000000000000000000000000000000169063b54170849061051e908b908b9086908a908a90600401610be8565b600060405180830381600087803b15801561053857600080fd5b505af115801561054c573d6000803e3d6000fd5b505050505050505050505050565b600061056885870187610c48565b905060007f00000000000000000000000000000000000000000000000000000000000000006001600160a01b031663935b13f686866040518363ffffffff1660e01b81526004016105ba929190610cfa565b60206040518083038186803b1580156105d257600080fd5b505afa1580156105e6573d6000803e3d6000fd5b505050506040513d601f19601f8201168201806040525081019061060a9190610ae1565b9050600082518461061b9190610d29565b905060005b83518110156106e957826001600160a01b031663a9059cbb85838151811061064a5761064a610d4b565b6020026020010151846040518363ffffffff1660e01b81526004016106849291906001600160a01b03929092168252602082015260400190565b602060405180830381600087803b15801561069e57600080fd5b505af11580156106b2573d6000803e3d6000fd5b505050506040513d601f19601f820116820180604052508101906106d69190610afe565b50806106e181610d61565b915050610620565b50505050505050505050505050565b60008083601f84011261070a57600080fd5b50813567ffffffffffffffff81111561072257600080fd5b60208301915083602082850101111561073a57600080fd5b9250929050565b60008060008060008060008060008060c08b8d03121561076057600080fd5b8a35995060208b013567ffffffffffffffff8082111561077f57600080fd5b61078b8e838f016106f8565b909b50995060408d01359150808211156107a457600080fd5b6107b08e838f016106f8565b909950975060608d01359150808211156107c957600080fd5b6107d58e838f016106f8565b909750955060808d01359150808211156107ee57600080fd5b506107fb8d828e016106f8565b9150809450508092505060a08b013590509295989b9194979a5092959850565b60008060008060008060006080888a03121561083657600080fd5b87359650602088013567ffffffffffffffff8082111561085557600080fd5b6108618b838c016106f8565b909850965060408a013591508082111561087a57600080fd5b6108868b838c016106f8565b909650945060608a013591508082111561089f57600080fd5b506108ac8a828b016106f8565b989b979a50959850939692959293505050565b634e487b7160e01b600052604160045260246000fd5b604051601f8201601f1916810167ffffffffffffffff811182821017156108fe576108fe6108bf565b604052919050565b600082601f83011261091757600080fd5b813567ffffffffffffffff811115610931576109316108bf565b610944601f8201601f19166020016108d5565b81815284602083860101111561095957600080fd5b816020850160208301376000918101602001919091529392505050565b60008060008060008060a0878903121561098f57600080fd5b863567ffffffffffffffff808211156109a757600080fd5b6109b38a838b01610906565b975060208901359150808211156109c957600080fd5b6109d58a838b01610906565b965060408901359150808211156109eb57600080fd5b818901915089601f8301126109ff57600080fd5b813581811115610a0e57600080fd5b8a60208260051b8501011115610a2357600080fd5b602083019650809550506060890135915080821115610a4157600080fd5b50610a4e89828a01610906565b925050608087013590509295509295509295565b6000815180845260005b81811015610a8857602081850181015186830182015201610a6c565b81811115610a9a576000602083870101525b50601f01601f19169290920160200192915050565b602081526000610ac26020830184610a62565b9392505050565b6001600160a01b0381168114610ade57600080fd5b50565b600060208284031215610af357600080fd5b8151610ac281610ac9565b600060208284031215610b1057600080fd5b81518015158114610ac257600080fd5b60208082528181018390526000908460408401835b86811015610b63578235610b4881610ac9565b6001600160a01b031682529183019190830190600101610b35565b509695505050505050565b60006001600160a01b03808a16835260e06020840152610b9160e084018a610a62565b8381036040850152610ba3818a610a62565b90508381036060850152610bb78189610a62565b90508381036080850152610bcb8188610a62565b60a0850196909652509290921660c0909101525095945050505050565b60a081526000610bfb60a0830188610a62565b8281036020840152610c0d8188610a62565b90508281036040840152610c218187610a62565b90508281036060840152610c358186610a62565b9150508260808301529695505050505050565b60006020808385031215610c5b57600080fd5b823567ffffffffffffffff80821115610c7357600080fd5b818501915085601f830112610c8757600080fd5b813581811115610c9957610c996108bf565b8060051b9150610caa8483016108d5565b8181529183018401918481019088841115610cc457600080fd5b938501935b83851015610cee5784359250610cde83610ac9565b8282529385019390850190610cc9565b98975050505050505050565b60208152816020820152818360408301376000818301604090810191909152601f909201601f19160101919050565b600082610d4657634e487b7160e01b600052601260045260246000fd5b500490565b634e487b7160e01b600052603260045260246000fd5b6000600019821415610d8357634e487b7160e01b600052601160045260246000fd5b506001019056fea26469706673582212203e95230248defa215b47a15bcb9b951263e98d7255dbe073bcf7464ab764fac564736f6c63430008090033",
  "linkReferences": {},
  "deployedLinkReferences": {}
}