{
  "_format": "hh-sol-artifact-1",
  "contractName": "DistributionExecutable",
  "sourceName": "examples/evm/call-contract-with-token/DistributionExecutable.sol",
  "abi": [
    {
      "inputs": [
        {
          "internalType": "address",
          "name": "gateway_",
          "type": "address"
        },
        {
          "internalType": "address",
          "name": "gasReceiver_",
          "type": "address"
        }
      ],
      "stateMutability": "nonpayable",
      "type": "constructor"
    },
    {
      "inputs": [],
      "name": "InvalidAddress",
      "type": "error"
    },
    {
      "inputs": [],
      "name": "NotApprovedByGateway",
      "type": "error"
    },
    {
      "inputs": [
        {
          "internalType": "bytes32",
          "name": "commandId",
          "type": "bytes32"
        },
        {
          "internalType": "string",
          "name": "sourceChain",
          "type": "string"
        },
        {
          "internalType": "string",
          "name": "sourceAddress",
          "type": "string"
        },
        {
          "internalType": "bytes",
          "name": "payload",
          "type": "bytes"
        }
      ],
      "name": "execute",
      "outputs": [],
      "stateMutability": "nonpayable",
      "type": "function"
    },
    {
      "inputs": [
        {
          "internalType": "bytes32",
          "name": "commandId",
          "type": "bytes32"
        },
        {
          "internalType": "string",
          "name": "sourceChain",
          "type": "string"
        },
        {
          "internalType": "string",
          "name": "sourceAddress",
          "type": "string"
        },
        {
          "internalType": "bytes",
          "name": "payload",
          "type": "bytes"
        },
        {
          "internalType": "string",
          "name": "tokenSymbol",
          "type": "string"
        },
        {
          "internalType": "uint256",
          "name": "amount",
          "type": "uint256"
        }
      ],
      "name": "executeWithToken",
      "outputs": [],
      "stateMutability": "nonpayable",
      "type": "function"
    },
    {
      "inputs": [],
      "name": "gasService",
      "outputs": [
        {
          "internalType": "contract IAxelarGasService",
          "name": "",
          "type": "address"
        }
      ],
      "stateMutability": "view",
      "type": "function"
    },
    {
      "inputs": [],
      "name": "gateway",
      "outputs": [
        {
          "internalType": "contract IAxelarGateway",
          "name": "",
          "type": "address"
        }
      ],
      "stateMutability": "view",
      "type": "function"
    },
    {
      "inputs": [
        {
          "internalType": "string",
          "name": "destinationChain",
          "type": "string"
        },
        {
          "internalType": "string",
          "name": "destinationAddress",
          "type": "string"
        },
        {
          "internalType": "address[]",
          "name": "destinationAddresses",
          "type": "address[]"
        },
        {
          "internalType": "string",
          "name": "symbol",
          "type": "string"
        },
        {
          "internalType": "uint256",
          "name": "amount",
          "type": "uint256"
        }
      ],
      "name": "sendToMany",
      "outputs": [],
      "stateMutability": "payable",
      "type": "function"
    }
  ],
  "bytecode": "0x60c060405234801561001057600080fd5b5060405161112838038061112883398101604081905261002f9161008b565b816001600160a01b0381166100575760405163e6c4247b60e01b815260040160405180910390fd5b6001600160a01b039081166080521660a052506100be565b80516001600160a01b038116811461008657600080fd5b919050565b6000806040838503121561009e57600080fd5b6100a78361006f565b91506100b56020840161006f565b90509250929050565b60805160a0516110156101136000396000818161010301526105ca0152600081816071015281816101820152818161029e01528181610389015281816104e10152818161067001526106fd01526110156000f3fe60806040526004361061005a5760003560e01c8063491606581161004357806349160658146100d15780636a22d8cc146100f1578063fbd9497b1461012557600080fd5b8063116191b61461005f5780631a98b2e0146100af575b600080fd5b34801561006b57600080fd5b506100937f000000000000000000000000000000000000000000000000000000000000000081565b6040516001600160a01b03909116815260200160405180910390f35b3480156100bb57600080fd5b506100cf6100ca3660046108d0565b610138565b005b3480156100dd57600080fd5b506100cf6100ec3660046109aa565b610254565b3480156100fd57600080fd5b506100937f000000000000000000000000000000000000000000000000000000000000000081565b6100cf610133366004610b05565b610356565b6000858560405161014a929190610bf1565b6040519081900381207f1876eed900000000000000000000000000000000000000000000000000000000825291506001600160a01b037f00000000000000000000000000000000000000000000000000000000000000001690631876eed9906101c7908e908e908e908e908e9089908d908d908d90600401610c2a565b602060405180830381600087803b1580156101e157600080fd5b505af11580156101f5573d6000803e3d6000fd5b505050506040513d601f19601f820116820180604052508101906102199190610c89565b61023657604051631403112d60e21b815260040160405180910390fd5b6102478a8a8a8a8a8a8a8a8a6106e9565b5050505050505050505050565b60008282604051610266929190610bf1565b6040519081900381207f5f6970c300000000000000000000000000000000000000000000000000000000825291506001600160a01b037f00000000000000000000000000000000000000000000000000000000000000001690635f6970c3906102dd908b908b908b908b908b908990600401610cb2565b602060405180830381600087803b1580156102f757600080fd5b505af115801561030b573d6000803e3d6000fd5b505050506040513d601f19601f8201168201806040525081019061032f9190610c89565b61034c57604051631403112d60e21b815260040160405180910390fd5b5050505050505050565b6040517f935b13f60000000000000000000000000000000000000000000000000000000081526000906001600160a01b037f0000000000000000000000000000000000000000000000000000000000000000169063935b13f6906103be908690600401610d40565b60206040518083038186803b1580156103d657600080fd5b505afa1580156103ea573d6000803e3d6000fd5b505050506040513d601f19601f8201168201806040525081019061040e9190610d6b565b6040517f23b872dd000000000000000000000000000000000000000000000000000000008152336004820152306024820152604481018490529091506001600160a01b038216906323b872dd90606401602060405180830381600087803b15801561047857600080fd5b505af115801561048c573d6000803e3d6000fd5b505050506040513d601f19601f820116820180604052508101906104b09190610c89565b506040517f095ea7b30000000000000000000000000000000000000000000000000000000081526001600160a01b037f0000000000000000000000000000000000000000000000000000000000000000811660048301526024820184905282169063095ea7b390604401602060405180830381600087803b15801561053457600080fd5b505af1158015610548573d6000803e3d6000fd5b505050506040513d601f19601f8201168201806040525081019061056c9190610c89565b5060008585604051602001610582929190610d88565b60408051601f1981840301815291905290503415610640576040517fc62c20020000000000000000000000000000000000000000000000000000000081526001600160a01b037f0000000000000000000000000000000000000000000000000000000000000000169063c62c200290349061060d9030908d908d9088908c908c903390600401610dd6565b6000604051808303818588803b15801561062657600080fd5b505af115801561063a573d6000803e3d6000fd5b50505050505b6040517fb54170840000000000000000000000000000000000000000000000000000000081526001600160a01b037f0000000000000000000000000000000000000000000000000000000000000000169063b5417084906106ad908b908b9086908a908a90600401610e50565b600060405180830381600087803b1580156106c757600080fd5b505af11580156106db573d6000803e3d6000fd5b505050505050505050505050565b60006106f785870187610eb0565b905060007f00000000000000000000000000000000000000000000000000000000000000006001600160a01b031663935b13f686866040518363ffffffff1660e01b8152600401610749929190610f62565b60206040518083038186803b15801561076157600080fd5b505afa158015610775573d6000803e3d6000fd5b505050506040513d601f19601f820116820180604052508101906107999190610d6b565b905060008251846107aa9190610f7e565b905060005b835181101561087857826001600160a01b031663a9059cbb8583815181106107d9576107d9610fa0565b6020026020010151846040518363ffffffff1660e01b81526004016108139291906001600160a01b03929092168252602082015260400190565b602060405180830381600087803b15801561082d57600080fd5b505af1158015610841573d6000803e3d6000fd5b505050506040513d601f19601f820116820180604052508101906108659190610c89565b508061087081610fb6565b9150506107af565b50505050505050505050505050565b60008083601f84011261089957600080fd5b50813567ffffffffffffffff8111156108b157600080fd5b6020830191508360208285010111156108c957600080fd5b9250929050565b60008060008060008060008060008060c08b8d0312156108ef57600080fd5b8a35995060208b013567ffffffffffffffff8082111561090e57600080fd5b61091a8e838f01610887565b909b50995060408d013591508082111561093357600080fd5b61093f8e838f01610887565b909950975060608d013591508082111561095857600080fd5b6109648e838f01610887565b909750955060808d013591508082111561097d57600080fd5b5061098a8d828e01610887565b9150809450508092505060a08b013590509295989b9194979a5092959850565b60008060008060008060006080888a0312156109c557600080fd5b87359650602088013567ffffffffffffffff808211156109e457600080fd5b6109f08b838c01610887565b909850965060408a0135915080821115610a0957600080fd5b610a158b838c01610887565b909650945060608a0135915080821115610a2e57600080fd5b50610a3b8a828b01610887565b989b979a50959850939692959293505050565b634e487b7160e01b600052604160045260246000fd5b604051601f8201601f1916810167ffffffffffffffff81118282101715610a8d57610a8d610a4e565b604052919050565b600082601f830112610aa657600080fd5b813567ffffffffffffffff811115610ac057610ac0610a4e565b610ad3601f8201601f1916602001610a64565b818152846020838601011115610ae857600080fd5b816020850160208301376000918101602001919091529392505050565b60008060008060008060a08789031215610b1e57600080fd5b863567ffffffffffffffff80821115610b3657600080fd5b610b428a838b01610a95565b97506020890135915080821115610b5857600080fd5b610b648a838b01610a95565b96506040890135915080821115610b7a57600080fd5b818901915089601f830112610b8e57600080fd5b813581811115610b9d57600080fd5b8a60208260051b8501011115610bb257600080fd5b602083019650809550506060890135915080821115610bd057600080fd5b50610bdd89828a01610a95565b925050608087013590509295509295509295565b8183823760009101908152919050565b81835281816020850137506000828201602090810191909152601f909101601f19169091010190565b89815260c060208201526000610c4460c083018a8c610c01565b8281036040840152610c5781898b610c01565b90508660608401528281036080840152610c72818688610c01565b9150508260a08301529a9950505050505050505050565b600060208284031215610c9b57600080fd5b81518015158114610cab57600080fd5b9392505050565b868152608060208201526000610ccc608083018789610c01565b8281036040840152610cdf818688610c01565b915050826060830152979650505050505050565b6000815180845260005b81811015610d1957602081850181015186830182015201610cfd565b81811115610d2b576000602083870101525b50601f01601f19169290920160200192915050565b602081526000610cab6020830184610cf3565b6001600160a01b0381168114610d6857600080fd5b50565b600060208284031215610d7d57600080fd5b8151610cab81610d53565b60208082528181018390526000908460408401835b86811015610dcb578235610db081610d53565b6001600160a01b031682529183019190830190600101610d9d565b509695505050505050565b60006001600160a01b03808a16835260e06020840152610df960e084018a610cf3565b8381036040850152610e0b818a610cf3565b90508381036060850152610e1f8189610cf3565b90508381036080850152610e338188610cf3565b60a0850196909652509290921660c0909101525095945050505050565b60a081526000610e6360a0830188610cf3565b8281036020840152610e758188610cf3565b90508281036040840152610e898187610cf3565b90508281036060840152610e9d8186610cf3565b9150508260808301529695505050505050565b60006020808385031215610ec357600080fd5b823567ffffffffffffffff80821115610edb57600080fd5b818501915085601f830112610eef57600080fd5b813581811115610f0157610f01610a4e565b8060051b9150610f12848301610a64565b8181529183018401918481019088841115610f2c57600080fd5b938501935b83851015610f565784359250610f4683610d53565b8282529385019390850190610f31565b98975050505050505050565b602081526000610f76602083018486610c01565b949350505050565b600082610f9b57634e487b7160e01b600052601260045260246000fd5b500490565b634e487b7160e01b600052603260045260246000fd5b6000600019821415610fd857634e487b7160e01b600052601160045260246000fd5b506001019056fea2646970667358221220b442057aa6d03959961d9155119f912d0f65778ad056fb310d2782f6a237678f64736f6c63430008090033",
  "linkReferences": {},
  "deployedLinkReferences": {}
}