{
  "_format": "hh-sol-artifact-1",
  "contractName": "NftAuctionhouseRemote",
  "sourceName": "examples/evm/nft-auctionhouse/NftAuctionhouseRemote.sol",
  "abi": [
    {
      "inputs": [
        {
          "internalType": "address",
          "name": "gateway_",
          "type": "address"
        },
        {
          "internalType": "address",
          "name": "gasReceiver_",
          "type": "address"
        },
        {
          "internalType": "address",
          "name": "usdc_",
          "type": "address"
        }
      ],
      "stateMutability": "nonpayable",
      "type": "constructor"
    },
    {
      "inputs": [],
      "name": "InvalidAddress",
      "type": "error"
    },
    {
      "inputs": [],
      "name": "NotApprovedByGateway",
      "type": "error"
    },
    {
      "inputs": [],
      "name": "DEMONINATOR",
      "outputs": [
        {
          "internalType": "uint256",
          "name": "",
          "type": "uint256"
        }
      ],
      "stateMutability": "view",
      "type": "function"
    },
    {
      "inputs": [],
      "name": "NO_MIN",
      "outputs": [
        {
          "internalType": "uint256",
          "name": "",
          "type": "uint256"
        }
      ],
      "stateMutability": "view",
      "type": "function"
    },
    {
      "inputs": [],
      "name": "NUMERATOR",
      "outputs": [
        {
          "internalType": "uint256",
          "name": "",
          "type": "uint256"
        }
      ],
      "stateMutability": "view",
      "type": "function"
    },
    {
      "inputs": [
        {
          "internalType": "address",
          "name": "bidder",
          "type": "address"
        },
        {
          "internalType": "address",
          "name": "operator",
          "type": "address"
        },
        {
          "internalType": "uint256",
          "name": "tokenId",
          "type": "uint256"
        },
        {
          "internalType": "uint256",
          "name": "amount",
          "type": "uint256"
        }
      ],
      "name": "_bid",
      "outputs": [],
      "stateMutability": "nonpayable",
      "type": "function"
    },
    {
      "inputs": [
        {
          "internalType": "address",
          "name": "operator",
          "type": "address"
        },
        {
          "internalType": "uint256",
          "name": "tokenId",
          "type": "uint256"
        },
        {
          "internalType": "uint256",
          "name": "minAmount",
          "type": "uint256"
        },
        {
          "internalType": "uint256",
          "name": "deadline",
          "type": "uint256"
        }
      ],
      "name": "auction",
      "outputs": [],
      "stateMutability": "nonpayable",
      "type": "function"
    },
    {
      "inputs": [
        {
          "internalType": "address",
          "name": "",
          "type": "address"
        },
        {
          "internalType": "uint256",
          "name": "",
          "type": "uint256"
        }
      ],
      "name": "auctioneers",
      "outputs": [
        {
          "internalType": "address",
          "name": "",
          "type": "address"
        }
      ],
      "stateMutability": "view",
      "type": "function"
    },
    {
      "inputs": [
        {
          "internalType": "address",
          "name": "operator",
          "type": "address"
        },
        {
          "internalType": "uint256",
          "name": "tokenId",
          "type": "uint256"
        },
        {
          "internalType": "uint256",
          "name": "amount",
          "type": "uint256"
        }
      ],
      "name": "bid",
      "outputs": [],
      "stateMutability": "nonpayable",
      "type": "function"
    },
    {
      "inputs": [
        {
          "internalType": "string",
          "name": "destinationChain",
          "type": "string"
        },
        {
          "internalType": "string",
          "name": "destinationAuctionhouse",
          "type": "string"
        },
        {
          "internalType": "address",
          "name": "operator",
          "type": "address"
        },
        {
          "internalType": "uint256",
          "name": "tokenId",
          "type": "uint256"
        },
        {
          "internalType": "address",
          "name": "bidder",
          "type": "address"
        },
        {
          "internalType": "uint256",
          "name": "amount",
          "type": "uint256"
        }
      ],
      "name": "bidRemote",
      "outputs": [],
      "stateMutability": "payable",
      "type": "function"
    },
    {
      "inputs": [
        {
          "internalType": "address",
          "name": "",
          "type": "address"
        },
        {
          "internalType": "uint256",
          "name": "",
          "type": "uint256"
        }
      ],
      "name": "bidders",
      "outputs": [
        {
          "internalType": "address",
          "name": "",
          "type": "address"
        }
      ],
      "stateMutability": "view",
      "type": "function"
    },
    {
      "inputs": [
        {
          "internalType": "address",
          "name": "",
          "type": "address"
        },
        {
          "internalType": "uint256",
          "name": "",
          "type": "uint256"
        }
      ],
      "name": "bids",
      "outputs": [
        {
          "internalType": "uint256",
          "name": "",
          "type": "uint256"
        }
      ],
      "stateMutability": "view",
      "type": "function"
    },
    {
      "inputs": [
        {
          "internalType": "address",
          "name": "",
          "type": "address"
        },
        {
          "internalType": "uint256",
          "name": "",
          "type": "uint256"
        }
      ],
      "name": "deadlines",
      "outputs": [
        {
          "internalType": "uint256",
          "name": "",
          "type": "uint256"
        }
      ],
      "stateMutability": "view",
      "type": "function"
    },
    {
      "inputs": [
        {
          "internalType": "bytes32",
          "name": "commandId",
          "type": "bytes32"
        },
        {
          "internalType": "string",
          "name": "sourceChain",
          "type": "string"
        },
        {
          "internalType": "string",
          "name": "sourceAddress",
          "type": "string"
        },
        {
          "internalType": "bytes",
          "name": "payload",
          "type": "bytes"
        }
      ],
      "name": "execute",
      "outputs": [],
      "stateMutability": "nonpayable",
      "type": "function"
    },
    {
      "inputs": [
        {
          "internalType": "bytes32",
          "name": "commandId",
          "type": "bytes32"
        },
        {
          "internalType": "string",
          "name": "sourceChain",
          "type": "string"
        },
        {
          "internalType": "string",
          "name": "sourceAddress",
          "type": "string"
        },
        {
          "internalType": "bytes",
          "name": "payload",
          "type": "bytes"
        },
        {
          "internalType": "string",
          "name": "tokenSymbol",
          "type": "string"
        },
        {
          "internalType": "uint256",
          "name": "amount",
          "type": "uint256"
        }
      ],
      "name": "executeWithToken",
      "outputs": [],
      "stateMutability": "nonpayable",
      "type": "function"
    },
    {
      "inputs": [],
      "name": "gasService",
      "outputs": [
        {
          "internalType": "contract IAxelarGasService",
          "name": "",
          "type": "address"
        }
      ],
      "stateMutability": "view",
      "type": "function"
    },
    {
      "inputs": [],
      "name": "gateway",
      "outputs": [
        {
          "internalType": "contract IAxelarGateway",
          "name": "",
          "type": "address"
        }
      ],
      "stateMutability": "view",
      "type": "function"
    },
    {
      "inputs": [
        {
          "internalType": "address",
          "name": "operator",
          "type": "address"
        },
        {
          "internalType": "uint256",
          "name": "tokenId",
          "type": "uint256"
        }
      ],
      "name": "isAuctionRunning",
      "outputs": [
        {
          "internalType": "bool",
          "name": "",
          "type": "bool"
        }
      ],
      "stateMutability": "view",
      "type": "function"
    },
    {
      "inputs": [
        {
          "internalType": "address",
          "name": "",
          "type": "address"
        },
        {
          "internalType": "uint256",
          "name": "",
          "type": "uint256"
        }
      ],
      "name": "minAmounts",
      "outputs": [
        {
          "internalType": "uint256",
          "name": "",
          "type": "uint256"
        }
      ],
      "stateMutability": "view",
      "type": "function"
    },
    {
      "inputs": [
        {
          "internalType": "address",
          "name": "operator",
          "type": "address"
        },
        {
          "internalType": "uint256",
          "name": "tokenId",
          "type": "uint256"
        }
      ],
      "name": "resolveAuction",
      "outputs": [],
      "stateMutability": "nonpayable",
      "type": "function"
    },
    {
      "inputs": [],
      "name": "usdc",
      "outputs": [
        {
          "internalType": "contract IERC20",
          "name": "",
          "type": "address"
        }
      ],
      "stateMutability": "view",
      "type": "function"
    }
  ],
  "bytecode": "0x60e06040523480156200001157600080fd5b506040516200247e3803806200247e83398101604081905262000034916200009f565b6001600160a01b0380821660805283908116620000645760405163e6c4247b60e01b815260040160405180910390fd5b6001600160a01b0390811660a0529190911660c05250620000e99050565b80516001600160a01b03811681146200009a57600080fd5b919050565b600080600060608486031215620000b557600080fd5b620000c08462000082565b9250620000d06020850162000082565b9150620000e06040850162000082565b90509250925092565b60805160a05160c0516122f562000189600039600081816102f30152610d520152600081816101c5015281816106040152818161072001528181610c3601528181610dfa015281816111700152818161121e015281816113830152611468015260008181610231015281816104c301528181610b9a01528181610c650152818161119f015281816113b20152818161151701526115c101526122f56000f3fe6080604052600436106101445760003560e01c80636a22d8cc116100c0578063c038ea9d11610074578063dab477ce11610059578063dab477ce1461042d578063dd671ba614610440578063e9e05fe21461046057600080fd5b8063c038ea9d146103d7578063d8830c7d1461041857600080fd5b806380f8a4cb116100a557806380f8a4cb1461032a5780638a535bf714610362578063baa283d3146103b757600080fd5b80636a22d8cc146102e15780637a0eef301461031557600080fd5b80633e413bee116101175780635e8d528d116100fc5780635e8d528d14610273578063634a6a59146102895780636720f11c146102c157600080fd5b80633e413bee1461021f578063491606581461025357600080fd5b806301495c1c146101495780630f41ba4b14610191578063116191b6146101b35780631a98b2e0146101ff575b600080fd5b34801561015557600080fd5b5061017e610164366004611ac0565b600060208181529281526040808220909352908152205481565b6040519081526020015b60405180910390f35b34801561019d57600080fd5b506101b16101ac366004611aec565b6104a1565b005b3480156101bf57600080fd5b506101e77f000000000000000000000000000000000000000000000000000000000000000081565b6040516001600160a01b039091168152602001610188565b34801561020b57600080fd5b506101b161021a366004611b6a565b6105ba565b34801561022b57600080fd5b506101e77f000000000000000000000000000000000000000000000000000000000000000081565b34801561025f57600080fd5b506101b161026e366004611c44565b6106d6565b34801561027f57600080fd5b5061017e60001981565b34801561029557600080fd5b5061017e6102a4366004611ac0565b600160209081526000928352604080842090915290825290205481565b3480156102cd57600080fd5b506101b16102dc366004611ce8565b6107d8565b3480156102ed57600080fd5b506101e77f000000000000000000000000000000000000000000000000000000000000000081565b34801561032157600080fd5b5061017e600381565b34801561033657600080fd5b5061017e610345366004611ac0565b600460209081526000928352604080842090915290825290205481565b34801561036e57600080fd5b506103a761037d366004611ac0565b6001600160a01b039190911660009081526001602090815260408083209383529290522054421090565b6040519015158152602001610188565b3480156103c357600080fd5b506101b16103d2366004611d2e565b610a40565b3480156103e357600080fd5b506101e76103f2366004611ac0565b60026020908152600092835260408084209091529082529020546001600160a01b031681565b34801561042457600080fd5b5061017e600481565b6101b161043b366004611d69565b610b78565b34801561044c57600080fd5b506101b161045b366004611ac0565b610e76565b34801561046c57600080fd5b506101e761047b366004611ac0565b60036020908152600092835260408084209091529082529020546001600160a01b031681565b6040516323b872dd60e01b8152336004820152306024820152604481018290527f00000000000000000000000000000000000000000000000000000000000000006001600160a01b0316906323b872dd90606401602060405180830381600087803b15801561050f57600080fd5b505af1158015610523573d6000803e3d6000fd5b505050506040513d601f19601f820116820180604052508101906105479190611e12565b506040516319c83c4760e21b81523360048201526001600160a01b038416602482015260448101839052606481018290523090636720f11c90608401600060405180830381600087803b15801561059d57600080fd5b505af11580156105b1573d6000803e3d6000fd5b50505050505050565b600085856040516105cc929190611e3b565b6040519081900381207f1876eed900000000000000000000000000000000000000000000000000000000825291506001600160a01b037f00000000000000000000000000000000000000000000000000000000000000001690631876eed990610649908e908e908e908e908e9089908d908d908d90600401611e74565b602060405180830381600087803b15801561066357600080fd5b505af1158015610677573d6000803e3d6000fd5b505050506040513d601f19601f8201168201806040525081019061069b9190611e12565b6106b857604051631403112d60e21b815260040160405180910390fd5b6106c98a8a8a8a8a8a8a8a8a611078565b5050505050505050505050565b600082826040516106e8929190611e3b565b6040519081900381207f5f6970c300000000000000000000000000000000000000000000000000000000825291506001600160a01b037f00000000000000000000000000000000000000000000000000000000000000001690635f6970c39061075f908b908b908b908b908b908990600401611ed3565b602060405180830381600087803b15801561077957600080fd5b505af115801561078d573d6000803e3d6000fd5b505050506040513d601f19601f820116820180604052508101906107b19190611e12565b6107ce57604051631403112d60e21b815260040160405180910390fd5b5050505050505050565b33301461082c5760405162461bcd60e51b815260206004820152600860248201527f4e4f545f53454c4600000000000000000000000000000000000000000000000060448201526064015b60405180910390fd5b6001600160a01b03831660009081526004602090815260408083208584529091529020548061089d5760405162461bcd60e51b815260206004820152600e60248201527f4e4f545f41554354494f4e494e470000000000000000000000000000000000006044820152606401610823565b6001600160a01b03841660009081526001602090815260408083208684529091529020544211156109105760405162461bcd60e51b815260206004820152600f60248201527f41554354494f4e5f4558504952454400000000000000000000000000000000006044820152606401610823565b6001600160a01b038085166000818152600260209081526040808320888452825280832054938352828252808320888452909152902054911690610955600385611f2a565b610960600483611f2a565b1115801561097957506000198314806109795750828410155b80156109855750600084115b6109d15760405162461bcd60e51b815260206004820152600b60248201527f4249445f544f4f5f4c4f570000000000000000000000000000000000000000006044820152606401610823565b6001600160a01b038216156109ec576109ec8282888861135b565b5050506001600160a01b03928316600081815260026020908152604080832086845282528083208054979098166001600160a01b031990971696909617909655908152808552838120928152919093522055565b6040516323b872dd60e01b8152336004820152306024820152604481018490526001600160a01b038516906323b872dd90606401600060405180830381600087803b158015610a8e57600080fd5b505af1158015610aa2573d6000803e3d6000fd5b50505050428111610af55760405162461bcd60e51b815260206004820152600f60248201527f41554354494f4e5f4558504952454400000000000000000000000000000000006044820152606401610823565b6001600160a01b038416600090815260016020908152604080832086845290915290208190558115610b275781610b2b565b6000195b6001600160a01b0390941660008181526004602090815260408083208784528252808320979097559181526003825285812094815293905250502080546001600160a01b03191633179055565b6040516323b872dd60e01b8152336004820152306024820152604481018290527f00000000000000000000000000000000000000000000000000000000000000006001600160a01b0316906323b872dd90606401602060405180830381600087803b158015610be657600080fd5b505af1158015610bfa573d6000803e3d6000fd5b505050506040513d601f19601f82011682018060405250810190610c1e9190611e12565b5060405163095ea7b360e01b81526001600160a01b037f000000000000000000000000000000000000000000000000000000000000000081166004830152602482018390527f0000000000000000000000000000000000000000000000000000000000000000169063095ea7b390604401602060405180830381600087803b158015610ca957600080fd5b505af1158015610cbd573d6000803e3d6000fd5b505050506040513d601f19601f82011682018060405250810190610ce19190611e12565b50604080513360208201526001600160a01b03848116828401528616606082015260808082018690528251808303909101815260a09091019091523415610dca576040517fc62c20020000000000000000000000000000000000000000000000000000000081526001600160a01b037f0000000000000000000000000000000000000000000000000000000000000000169063c62c2002903490610d979030908e908e908e908e908a908c903390600401611fa1565b6000604051808303818588803b158015610db057600080fd5b505af1158015610dc4573d6000803e3d6000fd5b50505050505b6040517fb54170840000000000000000000000000000000000000000000000000000000081526001600160a01b037f0000000000000000000000000000000000000000000000000000000000000000169063b541708490610e39908c908c908c908c9088908a90600401612027565b600060405180830381600087803b158015610e5357600080fd5b505af1158015610e67573d6000803e3d6000fd5b50505050505050505050505050565b6001600160a01b0380831660009081526003602090815260408083208584529091529020541680610ee95760405162461bcd60e51b815260206004820152600e60248201527f4e4f545f41554354494f4e494e470000000000000000000000000000000000006044820152606401610823565b6001600160a01b03831660009081526001602090815260408083208584529091529020544211610f5b5760405162461bcd60e51b815260206004820152600f60248201527f41554354494f4e5f52554e4e494e4700000000000000000000000000000000006044820152606401610823565b6001600160a01b0380841660008181526002602090815260408083208784528252808320549383528282528083208784529091529020549116908115610fad57610fa8838387878561159b565b611016565b6040516323b872dd60e01b81523060048201526001600160a01b038481166024830152604482018690528616906323b872dd90606401600060405180830381600087803b158015610ffd57600080fd5b505af1158015611011573d6000803e3d6000fd5b505050505b5050506001600160a01b03909116600081815260016020908152604080832085845282528083208390558383526004825280832085845282528083208390559282526003815282822093825292909252902080546001600160a01b0319169055565b6000808080611089888a018a612093565b6040805130602482018190526001600160a01b03851660448301526064820184905260848083018d90528351808403909101815260a490920183526020820180517bffffffffffffffffffffffffffffffffffffffffffffffffffffffff166319c83c4760e21b17905291519599509397509195509350600092909161110e916120e4565b6000604051808303816000865af19150503d806000811461114b576040519150601f19603f3d011682016040523d82523d6000602084013e611150565b606091505b50509050806112ba5760405163095ea7b360e01b81526001600160a01b037f000000000000000000000000000000000000000000000000000000000000000081166004830152602482018890527f0000000000000000000000000000000000000000000000000000000000000000169063095ea7b390604401602060405180830381600087803b1580156111e357600080fd5b505af11580156111f7573d6000803e3d6000fd5b505050506040513d601f19601f8201168201806040525081019061121b9190611e12565b507f00000000000000000000000000000000000000000000000000000000000000006001600160a01b03166326ef699d8f8f61125f896001600160a01b0316611737565b8c8c8c6040518763ffffffff1660e01b815260040161128396959493929190612100565b600060405180830381600087803b15801561129d57600080fd5b505af11580156112b1573d6000803e3d6000fd5b5050505061134b565b6001600160a01b038381166000818152600560209081526040808320878452825280832080546001600160a01b031916958a16959095179094559181526006825282812085825290915220611310908f8f611a0f565b506001600160a01b038381166000908152600760209081526040808320868452909152902080546001600160a01b0319169187169190911790555b5050505050505050505050505050565b6001600160a01b0384163014156114f15760405163095ea7b360e01b81526001600160a01b037f000000000000000000000000000000000000000000000000000000000000000081166004830152602482018590527f0000000000000000000000000000000000000000000000000000000000000000169063095ea7b390604401602060405180830381600087803b1580156113f657600080fd5b505af115801561140a573d6000803e3d6000fd5b505050506040513d601f19601f8201168201806040525081019061142e9190611e12565b506001600160a01b0382811660008181526006602090815260408083208684528252808320938352600782528083208684529091529020547f00000000000000000000000000000000000000000000000000000000000000008316926326ef699d929161149b9116611737565b866040518463ffffffff1660e01b81526004016114ba93929190612176565b600060405180830381600087803b1580156114d457600080fd5b505af11580156114e8573d6000803e3d6000fd5b50505050611595565b60405163a9059cbb60e01b81526001600160a01b038581166004830152602482018590527f0000000000000000000000000000000000000000000000000000000000000000169063a9059cbb90604401602060405180830381600087803b15801561155b57600080fd5b505af115801561156f573d6000803e3d6000fd5b505050506040513d601f19601f820116820180604052508101906115939190611e12565b505b50505050565b60405163a9059cbb60e01b81526001600160a01b038681166004830152602482018390527f0000000000000000000000000000000000000000000000000000000000000000169063a9059cbb90604401602060405180830381600087803b15801561160557600080fd5b505af1158015611619573d6000803e3d6000fd5b505050506040513d601f19601f8201168201806040525081019061163d9190611e12565b5060006001600160a01b0385163014611656578461167d565b6001600160a01b038085166000908152600560209081526040808320878452909152902054165b6040516323b872dd60e01b81523060048201526001600160a01b03808316602483015260448201869052919250908516906323b872dd90606401600060405180830381600087803b1580156116d157600080fd5b505af11580156116e5573d6000803e3d6000fd5b5050506001600160a01b039094166000818152600260209081526040808320878452825280832080546001600160a01b0319169055928252818152828220958252949094528320929092555050505050565b604051606082811b6bffffffffffffffffffffffff191660208301529060009060340160408051601f198184030181528282528051838301909252601083527f3031323334353637383961626364656600000000000000000000000000000000602084015280519093509091906000906117b2906002611f2a565b6117bd906002612260565b67ffffffffffffffff8111156117d5576117d5612278565b6040519080825280601f01601f1916602001820160405280156117ff576020820181803683370190505b5090507f3000000000000000000000000000000000000000000000000000000000000000816000815181106118365761183661228e565b60200101906001600160f81b031916908160001a9053507f7800000000000000000000000000000000000000000000000000000000000000816001815181106118815761188161228e565b60200101906001600160f81b031916908160001a90535060005b83811015611a05578260048683815181106118b8576118b861228e565b016020015182517fff0000000000000000000000000000000000000000000000000000000000000090911690911c60f81c9081106118f8576118f861228e565b01602001517fff00000000000000000000000000000000000000000000000000000000000000168261192b836002611f2a565b611936906002612260565b815181106119465761194661228e565b60200101906001600160f81b031916908160001a905350828582815181106119705761197061228e565b602091010151815160f89190911c600f169081106119905761199061228e565b01602001517fff0000000000000000000000000000000000000000000000000000000000000016826119c3836002611f2a565b6119ce906003612260565b815181106119de576119de61228e565b60200101906001600160f81b031916908160001a9053506119fe816122a4565b905061189b565b5095945050505050565b828054611a1b9061213b565b90600052602060002090601f016020900481019282611a3d5760008555611a83565b82601f10611a565782800160ff19823516178555611a83565b82800160010185558215611a83579182015b82811115611a83578235825591602001919060010190611a68565b50611a8f929150611a93565b5090565b5b80821115611a8f5760008155600101611a94565b6001600160a01b0381168114611abd57600080fd5b50565b60008060408385031215611ad357600080fd5b8235611ade81611aa8565b946020939093013593505050565b600080600060608486031215611b0157600080fd5b8335611b0c81611aa8565b95602085013595506040909401359392505050565b60008083601f840112611b3357600080fd5b50813567ffffffffffffffff811115611b4b57600080fd5b602083019150836020828501011115611b6357600080fd5b9250929050565b60008060008060008060008060008060c08b8d031215611b8957600080fd5b8a35995060208b013567ffffffffffffffff80821115611ba857600080fd5b611bb48e838f01611b21565b909b50995060408d0135915080821115611bcd57600080fd5b611bd98e838f01611b21565b909950975060608d0135915080821115611bf257600080fd5b611bfe8e838f01611b21565b909750955060808d0135915080821115611c1757600080fd5b50611c248d828e01611b21565b9150809450508092505060a08b013590509295989b9194979a5092959850565b60008060008060008060006080888a031215611c5f57600080fd5b87359650602088013567ffffffffffffffff80821115611c7e57600080fd5b611c8a8b838c01611b21565b909850965060408a0135915080821115611ca357600080fd5b611caf8b838c01611b21565b909650945060608a0135915080821115611cc857600080fd5b50611cd58a828b01611b21565b989b979a50959850939692959293505050565b60008060008060808587031215611cfe57600080fd5b8435611d0981611aa8565b93506020850135611d1981611aa8565b93969395505050506040820135916060013590565b60008060008060808587031215611d4457600080fd5b8435611d4f81611aa8565b966020860135965060408601359560600135945092505050565b60008060008060008060008060c0898b031215611d8557600080fd5b883567ffffffffffffffff80821115611d9d57600080fd5b611da98c838d01611b21565b909a50985060208b0135915080821115611dc257600080fd5b50611dcf8b828c01611b21565b9097509550506040890135611de381611aa8565b9350606089013592506080890135611dfa81611aa8565b8092505060a089013590509295985092959890939650565b600060208284031215611e2457600080fd5b81518015158114611e3457600080fd5b9392505050565b8183823760009101908152919050565b81835281816020850137506000828201602090810191909152601f909101601f19169091010190565b89815260c060208201526000611e8e60c083018a8c611e4b565b8281036040840152611ea181898b611e4b565b90508660608401528281036080840152611ebc818688611e4b565b9150508260a08301529a9950505050505050505050565b868152608060208201526000611eed608083018789611e4b565b8281036040840152611f00818688611e4b565b915050826060830152979650505050505050565b634e487b7160e01b600052601160045260246000fd5b6000816000190483118215151615611f4457611f44611f14565b500290565b60005b83811015611f64578181015183820152602001611f4c565b838111156115955750506000910152565b60008151808452611f8d816020860160208601611f49565b601f01601f19169290920160200192915050565b60006001600160a01b03808b16835260e06020840152611fc560e084018a8c611e4b565b8381036040850152611fd881898b611e4b565b90508381036060850152611fec8188611f75565b84810360808601526005815264615553444360d81b602082015260a0850196909652509290921660c090910152506040019695505050505050565b60a08152600061203b60a08301888a611e4b565b828103602084015261204e818789611e4b565b905082810360408401526120628186611f75565b83810360608501526005815264615553444360d81b6020820152608090930193909352506040019695505050505050565b600080600080608085870312156120a957600080fd5b84356120b481611aa8565b935060208501356120c481611aa8565b925060408501356120d481611aa8565b9396929550929360600135925050565b600082516120f6818460208701611f49565b9190910192915050565b60808152600061211460808301888a611e4b565b82810360208401526121268188611f75565b90508281036040840152611f00818688611e4b565b600181811c9082168061214f57607f821691505b6020821081141561217057634e487b7160e01b600052602260045260246000fd5b50919050565b60808152600080855481600182811c91508083168061219657607f831692505b60208084108214156121b657634e487b7160e01b86526022600452602486fd5b6080880184905260a088018280156121d557600181146121e657612211565b60ff19871682528282019750612211565b60008d81526020902060005b8781101561220b578154848201529086019084016121f2565b83019850505b50508786038189015250505050506122298186611f75565b9050828103604084015261224f816005815264615553444360d81b602082015260400190565b915050826060830152949350505050565b6000821982111561227357612273611f14565b500190565b634e487b7160e01b600052604160045260246000fd5b634e487b7160e01b600052603260045260246000fd5b60006000198214156122b8576122b8611f14565b506001019056fea2646970667358221220b6f4f7ff6855d8869553249eaedfe32c3a42142731f35114432fded2ff02db8b64736f6c63430008090033",
  "linkReferences": {},
  "deployedLinkReferences": {}
}