{
  "_format": "hh-sol-artifact-1",
  "contractName": "SendAckSender",
  "sourceName": "examples/evm/send-ack/SendAckSender.sol",
  "abi": [
    {
      "inputs": [
        {
          "internalType": "address",
          "name": "gateway_",
          "type": "address"
        },
        {
          "internalType": "address",
          "name": "gasReceiver_",
          "type": "address"
        },
        {
          "internalType": "string",
          "name": "thisChain_",
          "type": "string"
        }
      ],
      "stateMutability": "nonpayable",
      "type": "constructor"
    },
    {
      "inputs": [],
      "name": "InvalidAddress",
      "type": "error"
    },
    {
      "inputs": [],
      "name": "InvalidAddressString",
      "type": "error"
    },
    {
      "inputs": [],
      "name": "NotApprovedByGateway",
      "type": "error"
    },
    {
      "inputs": [],
      "name": "NotEnoughValueForGas",
      "type": "error"
    },
    {
      "anonymous": false,
      "inputs": [
        {
          "indexed": false,
          "internalType": "string",
          "name": "destinationChain",
          "type": "string"
        },
        {
          "indexed": false,
          "internalType": "string",
          "name": "contractAddress",
          "type": "string"
        },
        {
          "indexed": false,
          "internalType": "bytes",
          "name": "payload",
          "type": "bytes"
        },
        {
          "indexed": false,
          "internalType": "uint256",
          "name": "nonce",
          "type": "uint256"
        }
      ],
      "name": "ContractCallSent",
      "type": "event"
    },
    {
      "anonymous": false,
      "inputs": [
        {
          "indexed": false,
          "internalType": "string",
          "name": "destinationChain",
          "type": "string"
        },
        {
          "indexed": false,
          "internalType": "string",
          "name": "contractAddress",
          "type": "string"
        },
        {
          "indexed": false,
          "internalType": "uint256",
          "name": "nonce",
          "type": "uint256"
        }
      ],
      "name": "FalseAcknowledgment",
      "type": "event"
    },
    {
      "inputs": [
        {
          "internalType": "uint256",
          "name": "",
          "type": "uint256"
        }
      ],
      "name": "destination",
      "outputs": [
        {
          "internalType": "bytes32",
          "name": "",
          "type": "bytes32"
        }
      ],
      "stateMutability": "view",
      "type": "function"
    },
    {
      "inputs": [
        {
          "internalType": "bytes32",
          "name": "commandId",
          "type": "bytes32"
        },
        {
          "internalType": "string",
          "name": "sourceChain",
          "type": "string"
        },
        {
          "internalType": "string",
          "name": "sourceAddress",
          "type": "string"
        },
        {
          "internalType": "bytes",
          "name": "payload",
          "type": "bytes"
        }
      ],
      "name": "execute",
      "outputs": [],
      "stateMutability": "nonpayable",
      "type": "function"
    },
    {
      "inputs": [
        {
          "internalType": "bytes32",
          "name": "commandId",
          "type": "bytes32"
        },
        {
          "internalType": "string",
          "name": "sourceChain",
          "type": "string"
        },
        {
          "internalType": "string",
          "name": "sourceAddress",
          "type": "string"
        },
        {
          "internalType": "bytes",
          "name": "payload",
          "type": "bytes"
        },
        {
          "internalType": "string",
          "name": "tokenSymbol",
          "type": "string"
        },
        {
          "internalType": "uint256",
          "name": "amount",
          "type": "uint256"
        }
      ],
      "name": "executeWithToken",
      "outputs": [],
      "stateMutability": "nonpayable",
      "type": "function"
    },
    {
      "inputs": [
        {
          "internalType": "uint256",
          "name": "",
          "type": "uint256"
        }
      ],
      "name": "executed",
      "outputs": [
        {
          "internalType": "bool",
          "name": "",
          "type": "bool"
        }
      ],
      "stateMutability": "view",
      "type": "function"
    },
    {
      "inputs": [],
      "name": "gasService",
      "outputs": [
        {
          "internalType": "contract IAxelarGasService",
          "name": "",
          "type": "address"
        }
      ],
      "stateMutability": "view",
      "type": "function"
    },
    {
      "inputs": [],
      "name": "gateway",
      "outputs": [
        {
          "internalType": "contract IAxelarGateway",
          "name": "",
          "type": "address"
        }
      ],
      "stateMutability": "view",
      "type": "function"
    },
    {
      "inputs": [],
      "name": "nonce",
      "outputs": [
        {
          "internalType": "uint256",
          "name": "",
          "type": "uint256"
        }
      ],
      "stateMutability": "view",
      "type": "function"
    },
    {
      "inputs": [
        {
          "internalType": "string",
          "name": "destinationChain",
          "type": "string"
        },
        {
          "internalType": "string",
          "name": "contractAddress",
          "type": "string"
        },
        {
          "internalType": "bytes",
          "name": "payload",
          "type": "bytes"
        },
        {
          "internalType": "uint256",
          "name": "gasForRemote",
          "type": "uint256"
        }
      ],
      "name": "sendContractCall",
      "outputs": [],
      "stateMutability": "payable",
      "type": "function"
    },
    {
      "inputs": [],
      "name": "thisChain",
      "outputs": [
        {
          "internalType": "string",
          "name": "",
          "type": "string"
        }
      ],
      "stateMutability": "view",
      "type": "function"
    }
  ],
  "bytecode": "0x60c06040523480156200001157600080fd5b50604051620017fa380380620017fa833981016040819052620000349162000168565b826001600160a01b0381166200005d5760405163e6c4247b60e01b815260040160405180910390fd5b6001600160a01b03908116608052821660a0528051620000859060039060208401906200008f565b50505050620002a9565b8280546200009d906200026c565b90600052602060002090601f016020900481019282620000c157600085556200010c565b82601f10620000dc57805160ff19168380011785556200010c565b828001600101855582156200010c579182015b828111156200010c578251825591602001919060010190620000ef565b506200011a9291506200011e565b5090565b5b808211156200011a57600081556001016200011f565b80516001600160a01b03811681146200014d57600080fd5b919050565b634e487b7160e01b600052604160045260246000fd5b6000806000606084860312156200017e57600080fd5b620001898462000135565b925060206200019a81860162000135565b60408601519093506001600160401b0380821115620001b857600080fd5b818701915087601f830112620001cd57600080fd5b815181811115620001e257620001e262000152565b604051601f8201601f19908116603f011681019083821181831017156200020d576200020d62000152565b816040528281528a868487010111156200022657600080fd5b600093505b828410156200024a57848401860151818501870152928501926200022b565b828411156200025c5760008684830101525b8096505050505050509250925092565b600181811c908216806200028157607f821691505b60208210811415620002a357634e487b7160e01b600052602260045260246000fd5b50919050565b60805160a051611509620002f16000396000818161019d0152818161057001526105f701526000818160ad015281816102720152818161037d015261070f01526115096000f3fe6080604052600436106100965760003560e01c80634d427cf911610069578063affed0e01161004e578063affed0e0146101bf578063ca209d7b146101d5578063d3ecebd7146101e857600080fd5b80634d427cf9146101695780636a22d8cc1461018b57600080fd5b8063116191b61461009b5780631a98b2e0146100ec57806344f6891e1461010e5780634916065814610149575b600080fd5b3480156100a757600080fd5b506100cf7f000000000000000000000000000000000000000000000000000000000000000081565b6040516001600160a01b0390911681526020015b60405180910390f35b3480156100f857600080fd5b5061010c610107366004610db8565b610228565b005b34801561011a57600080fd5b5061013b610129366004610e92565b60026020526000908152604090205481565b6040519081526020016100e3565b34801561015557600080fd5b5061010c610164366004610eab565b610333565b34801561017557600080fd5b5061017e610443565b6040516100e39190610f9c565b34801561019757600080fd5b506100cf7f000000000000000000000000000000000000000000000000000000000000000081565b3480156101cb57600080fd5b5061013b60005481565b61010c6101e3366004610fb6565b6104d1565b3480156101f457600080fd5b50610218610203366004610e92565b60016020526000908152604090205460ff1681565b60405190151581526020016100e3565b6000858560405161023a929190611059565b6040519081900381207f1876eed900000000000000000000000000000000000000000000000000000000825291506001600160a01b037f00000000000000000000000000000000000000000000000000000000000000001690631876eed9906102b7908e908e908e908e908e9089908d908d908d90600401611092565b602060405180830381600087803b1580156102d157600080fd5b505af11580156102e5573d6000803e3d6000fd5b505050506040513d601f19601f8201168201806040525081019061030991906110f1565b61032657604051631403112d60e21b815260040160405180910390fd5b5050505050505050505050565b60008282604051610345929190611059565b6040519081900381207f5f6970c300000000000000000000000000000000000000000000000000000000825291506001600160a01b037f00000000000000000000000000000000000000000000000000000000000000001690635f6970c3906103bc908b908b908b908b908b908990600401611113565b602060405180830381600087803b1580156103d657600080fd5b505af11580156103ea573d6000803e3d6000fd5b505050506040513d601f19601f8201168201806040525081019061040e91906110f1565b61042b57604051631403112d60e21b815260040160405180910390fd5b61043987878787878761085c565b5050505050505050565b6003805461045090611154565b80601f016020809104026020016040519081016040528092919081815260200182805461047c90611154565b80156104c95780601f1061049e576101008083540402835291602001916104c9565b820191906000526020600020905b8154815290600101906020018083116104ac57829003601f168201915b505050505081565b60008054905060008185856040516020016104ee9392919061118f565b60408051601f19818403018152919052905082156106df5734831115610540576040517fe5f5a79900000000000000000000000000000000000000000000000000000000815260040160405180910390fd5b6040517f0c93e3bb0000000000000000000000000000000000000000000000000000000081526001600160a01b037f00000000000000000000000000000000000000000000000000000000000000001690630c93e3bb9085906105b39030908e908e908e908e908a9033906004016111b2565b6000604051808303818588803b1580156105cc57600080fd5b505af11580156105e0573d6000803e3d6000fd5b5050505050823411156106df576001600160a01b037f000000000000000000000000000000000000000000000000000000000000000016630c93e3bb610626853461122b565b6106658a8a8080601f01602080910402602001604051908101604052809392919081815260200183838082843760009201919091525061096592505050565b600361067030610ae4565b60408051602081018a905201604051602081830303815290604052336040518763ffffffff1660e01b81526004016106ac959493929190611242565b6000604051808303818588803b1580156106c557600080fd5b505af11580156106d9573d6000803e3d6000fd5b50505050505b6040517f1c92115f0000000000000000000000000000000000000000000000000000000081526001600160a01b037f00000000000000000000000000000000000000000000000000000000000000001690631c92115f9061074c908c908c908c908c90889060040161133b565b600060405180830381600087803b15801561076657600080fd5b505af115801561077a573d6000803e3d6000fd5b505050507f6c52f5eda14b017bd6057579de78fe8354d9c133d8e7edec70920ef11b108900898989898989886040516107b99796959493929190611382565b60405180910390a161083489898080601f01602080910402602001604051908101604052809392919081815260200183838082843760009201919091525050604080516020601f8d018190048102820181019092528b815292508b91508a9081908401838280828437600092019190915250610d3c92505050565b60008381526002602052604090205561084e8260016113d3565b600055505050505050505050565b600061086a82840184610e92565b90506108df87878080601f01602080910402602001604051908101604052809392919081815260200183838082843760009201919091525050604080516020601f8b018190048102820181019092528981529250899150889081908401838280828437600092019190915250610d3c92505050565b60008281526002602052604090205414610938577f036f215e0dffdb0755f8b502613d33e916e9f35487ca9b8e9be104a1cd9caa12878787878560405161092a9594939291906113eb565b60405180910390a15061095d565b6000908152600160208181526040808420805460ff1916909317909255600290528120555b505050505050565b6000808290506000808251602a1415806109a557508260008151811061098d5761098d611425565b6020910101516001600160f81b031916600360fc1b14155b806109d65750826001815181106109be576109be611425565b6020910101516001600160f81b031916600f60fb1b14155b156109f457604051636fa478cf60e11b815260040160405180910390fd5b60025b602a811015610ada57838181518110610a1257610a12611425565b016020015160f81c915060618210801590610a31575060668260ff1611155b15610a4857610a4160578361143b565b9150610ab1565b60418260ff1610158015610a60575060468260ff1611155b15610a7057610a4160378361143b565b60308260ff1610158015610a88575060398260ff1611155b15610a9857610a4160308361143b565b604051636fa478cf60e11b815260040160405180910390fd5b6002610abe82602961122b565b60ff8416911b1b9290921791610ad38161145e565b90506109f7565b5090949350505050565b604051606082811b6bffffffffffffffffffffffff191660208301529060009060340160408051601f198184030181528282528051838301909252601083527f303132333435363738396162636465660000000000000000000000000000000060208401528051909350909190600090610b5f906002611479565b610b6a9060026113d3565b67ffffffffffffffff811115610b8257610b82611498565b6040519080825280601f01601f191660200182016040528015610bac576020820181803683370190505b509050600360fc1b81600081518110610bc757610bc7611425565b60200101906001600160f81b031916908160001a905350600f60fb1b81600181518110610bf657610bf6611425565b60200101906001600160f81b031916908160001a90535060005b83811015610d3257826004868381518110610c2d57610c2d611425565b016020015182516001600160f81b031990911690911c60f81c908110610c5557610c55611425565b01602001516001600160f81b03191682610c70836002611479565b610c7b9060026113d3565b81518110610c8b57610c8b611425565b60200101906001600160f81b031916908160001a90535082858281518110610cb557610cb5611425565b602091010151815160f89190911c600f16908110610cd557610cd5611425565b01602001516001600160f81b03191682610cf0836002611479565b610cfb9060036113d3565b81518110610d0b57610d0b611425565b60200101906001600160f81b031916908160001a905350610d2b8161145e565b9050610c10565b5095945050505050565b60008282604051602001610d519291906114ae565b60405160208183030381529060405280519060200120905092915050565b60008083601f840112610d8157600080fd5b50813567ffffffffffffffff811115610d9957600080fd5b602083019150836020828501011115610db157600080fd5b9250929050565b60008060008060008060008060008060c08b8d031215610dd757600080fd5b8a35995060208b013567ffffffffffffffff80821115610df657600080fd5b610e028e838f01610d6f565b909b50995060408d0135915080821115610e1b57600080fd5b610e278e838f01610d6f565b909950975060608d0135915080821115610e4057600080fd5b610e4c8e838f01610d6f565b909750955060808d0135915080821115610e6557600080fd5b50610e728d828e01610d6f565b9150809450508092505060a08b013590509295989b9194979a5092959850565b600060208284031215610ea457600080fd5b5035919050565b60008060008060008060006080888a031215610ec657600080fd5b87359650602088013567ffffffffffffffff80821115610ee557600080fd5b610ef18b838c01610d6f565b909850965060408a0135915080821115610f0a57600080fd5b610f168b838c01610d6f565b909650945060608a0135915080821115610f2f57600080fd5b50610f3c8a828b01610d6f565b989b979a50959850939692959293505050565b6000815180845260005b81811015610f7557602081850181015186830182015201610f59565b81811115610f87576000602083870101525b50601f01601f19169290920160200192915050565b602081526000610faf6020830184610f4f565b9392505050565b60008060008060008060006080888a031215610fd157600080fd5b873567ffffffffffffffff80821115610fe957600080fd5b610ff58b838c01610d6f565b909950975060208a013591508082111561100e57600080fd5b61101a8b838c01610d6f565b909750955060408a013591508082111561103357600080fd5b506110408a828b01610d6f565b989b979a50959894979596606090950135949350505050565b8183823760009101908152919050565b81835281816020850137506000828201602090810191909152601f909101601f19169091010190565b89815260c0602082015260006110ac60c083018a8c611069565b82810360408401526110bf81898b611069565b905086606084015282810360808401526110da818688611069565b9150508260a08301529a9950505050505050505050565b60006020828403121561110357600080fd5b81518015158114610faf57600080fd5b86815260806020820152600061112d608083018789611069565b8281036040840152611140818688611069565b915050826060830152979650505050505050565b600181811c9082168061116857607f821691505b6020821081141561118957634e487b7160e01b600052602260045260246000fd5b50919050565b8381526040602082015260006111a9604083018486611069565b95945050505050565b60006001600160a01b03808a16835260a060208401526111d660a08401898b611069565b83810360408501526111e981888a611069565b905083810360608501526111fd8187610f4f565b92505080841660808401525098975050505050505050565b634e487b7160e01b600052601160045260246000fd5b60008282101561123d5761123d611215565b500390565b6001600160a01b03861681526000602060a0818401526000875481600182811c91508083168061127357607f831692505b85831081141561129157634e487b7160e01b85526022600452602485fd5b60a0880183905260c088018180156112b057600181146112c1576112ec565b60ff198616825287820196506112ec565b60008e81526020902060005b868110156112e6578154848201529085019089016112cd565b83019750505b50505050505083810360408501526113048188610f4f565b91505082810360608401526113198186610f4f565b91505061133160808301846001600160a01b03169052565b9695505050505050565b60608152600061134f606083018789611069565b8281036020840152611362818688611069565b905082810360408401526113768185610f4f565b98975050505050505050565b60808152600061139660808301898b611069565b82810360208401526113a981888a611069565b905082810360408401526113be818688611069565b91505082606083015298975050505050505050565b600082198211156113e6576113e6611215565b500190565b6060815260006113ff606083018789611069565b8281036020840152611412818688611069565b9150508260408301529695505050505050565b634e487b7160e01b600052603260045260246000fd5b600060ff821660ff84168082101561145557611455611215565b90039392505050565b600060001982141561147257611472611215565b5060010190565b600081600019048311821515161561149357611493611215565b500290565b634e487b7160e01b600052604160045260246000fd5b6040815260006114c16040830185610f4f565b82810360208401526111a98185610f4f56fea2646970667358221220275a2366b56efa033f9d3fa169069c030b392abada712af0299038b1e35b24b464736f6c63430008090033",
  "linkReferences": {},
  "deployedLinkReferences": {}
}