{
  "_format": "hh-sol-artifact-1",
  "contractName": "ExecutableSample",
  "sourceName": "examples/evm/call-contract/ExecutableSample.sol",
  "abi": [
    {
      "inputs": [
        {
          "internalType": "address",
          "name": "gateway_",
          "type": "address"
        },
        {
          "internalType": "address",
          "name": "gasReceiver_",
          "type": "address"
        }
      ],
      "stateMutability": "nonpayable",
      "type": "constructor"
    },
    {
      "inputs": [],
      "name": "InvalidAddress",
      "type": "error"
    },
    {
      "inputs": [],
      "name": "NotApprovedByGateway",
      "type": "error"
    },
    {
      "inputs": [
        {
          "internalType": "bytes32",
          "name": "commandId",
          "type": "bytes32"
        },
        {
          "internalType": "string",
          "name": "sourceChain",
          "type": "string"
        },
        {
          "internalType": "string",
          "name": "sourceAddress",
          "type": "string"
        },
        {
          "internalType": "bytes",
          "name": "payload",
          "type": "bytes"
        }
      ],
      "name": "execute",
      "outputs": [],
      "stateMutability": "nonpayable",
      "type": "function"
    },
    {
      "inputs": [
        {
          "internalType": "bytes32",
          "name": "commandId",
          "type": "bytes32"
        },
        {
          "internalType": "string",
          "name": "sourceChain",
          "type": "string"
        },
        {
          "internalType": "string",
          "name": "sourceAddress",
          "type": "string"
        },
        {
          "internalType": "bytes",
          "name": "payload",
          "type": "bytes"
        },
        {
          "internalType": "string",
          "name": "tokenSymbol",
          "type": "string"
        },
        {
          "internalType": "uint256",
          "name": "amount",
          "type": "uint256"
        }
      ],
      "name": "executeWithToken",
      "outputs": [],
      "stateMutability": "nonpayable",
      "type": "function"
    },
    {
      "inputs": [],
      "name": "gasService",
      "outputs": [
        {
          "internalType": "contract IAxelarGasService",
          "name": "",
          "type": "address"
        }
      ],
      "stateMutability": "view",
      "type": "function"
    },
    {
      "inputs": [],
      "name": "gateway",
      "outputs": [
        {
          "internalType": "contract IAxelarGateway",
          "name": "",
          "type": "address"
        }
      ],
      "stateMutability": "view",
      "type": "function"
    },
    {
      "inputs": [
        {
          "internalType": "string",
          "name": "destinationChain",
          "type": "string"
        },
        {
          "internalType": "string",
          "name": "destinationAddress",
          "type": "string"
        },
        {
          "internalType": "string",
          "name": "value_",
          "type": "string"
        }
      ],
      "name": "setRemoteValue",
      "outputs": [],
      "stateMutability": "payable",
      "type": "function"
    },
    {
      "inputs": [],
      "name": "sourceAddress",
      "outputs": [
        {
          "internalType": "string",
          "name": "",
          "type": "string"
        }
      ],
      "stateMutability": "view",
      "type": "function"
    },
    {
      "inputs": [],
      "name": "sourceChain",
      "outputs": [
        {
          "internalType": "string",
          "name": "",
          "type": "string"
        }
      ],
      "stateMutability": "view",
      "type": "function"
    },
    {
      "inputs": [],
      "name": "value",
      "outputs": [
        {
          "internalType": "string",
          "name": "",
          "type": "string"
        }
      ],
      "stateMutability": "view",
      "type": "function"
    }
  ],
  "bytecode": "0x60c060405234801561001057600080fd5b50604051610de6380380610de683398101604081905261002f9161008b565b816001600160a01b0381166100575760405163e6c4247b60e01b815260040160405180910390fd5b6001600160a01b039081166080521660a052506100be565b80516001600160a01b038116811461008657600080fd5b919050565b6000806040838503121561009e57600080fd5b6100a78361006f565b91506100b56020840161006f565b90509250929050565b60805160a051610ce86100fe6000396000818161015c01526104b90152600081816092015281816101f001528181610396015261055f0152610ce86000f3fe60806040526004361061007b5760003560e01c8063491606581161004e578063491606581461012a5780636a22d8cc1461014a57806380d326971461017e578063b0fa84441461019157600080fd5b8063116191b6146100805780631a98b2e0146100d15780631c6ffa46146100f35780633fa4f24514610115575b600080fd5b34801561008c57600080fd5b506100b47f000000000000000000000000000000000000000000000000000000000000000081565b6040516001600160a01b0390911681526020015b60405180910390f35b3480156100dd57600080fd5b506100f16100ec366004610770565b6101a6565b005b3480156100ff57600080fd5b506101086102b1565b6040516100c89190610897565b34801561012157600080fd5b5061010861033f565b34801561013657600080fd5b506100f16101453660046108b1565b61034c565b34801561015657600080fd5b506100b47f000000000000000000000000000000000000000000000000000000000000000081565b6100f161018c366004610955565b61045c565b34801561019d57600080fd5b506101086105ca565b600085856040516101b89291906109ef565b6040519081900381207f1876eed900000000000000000000000000000000000000000000000000000000825291506001600160a01b037f00000000000000000000000000000000000000000000000000000000000000001690631876eed990610235908e908e908e908e908e9089908d908d908d90600401610a28565b602060405180830381600087803b15801561024f57600080fd5b505af1158015610263573d6000803e3d6000fd5b505050506040513d601f19601f820116820180604052508101906102879190610a87565b6102a457604051631403112d60e21b815260040160405180910390fd5b5050505050505050505050565b600180546102be90610aa9565b80601f01602080910402602001604051908101604052809291908181526020018280546102ea90610aa9565b80156103375780601f1061030c57610100808354040283529160200191610337565b820191906000526020600020905b81548152906001019060200180831161031a57829003601f168201915b505050505081565b600080546102be90610aa9565b6000828260405161035e9291906109ef565b6040519081900381207f5f6970c300000000000000000000000000000000000000000000000000000000825291506001600160a01b037f00000000000000000000000000000000000000000000000000000000000000001690635f6970c3906103d5908b908b908b908b908b908990600401610ae4565b602060405180830381600087803b1580156103ef57600080fd5b505af1158015610403573d6000803e3d6000fd5b505050506040513d601f19601f820116820180604052508101906104279190610a87565b61044457604051631403112d60e21b815260040160405180910390fd5b6104528787878787876105d7565b5050505050505050565b60008282604051602001610471929190610b25565b60408051601f198184030181529190529050341561052f576040517f0c93e3bb0000000000000000000000000000000000000000000000000000000081526001600160a01b037f00000000000000000000000000000000000000000000000000000000000000001690630c93e3bb9034906104fc9030908c908c908c908c908a903390600401610b41565b6000604051808303818588803b15801561051557600080fd5b505af1158015610529573d6000803e3d6000fd5b50505050505b6040517f1c92115f0000000000000000000000000000000000000000000000000000000081526001600160a01b037f00000000000000000000000000000000000000000000000000000000000000001690631c92115f9061059c908a908a908a908a908890600401610ba4565b600060405180830381600087803b1580156105b657600080fd5b505af11580156102a4573d6000803e3d6000fd5b600280546102be90610aa9565b6105e381830183610c01565b80516105f79160009160209091019061061a565b506106046001878761069e565b506106116002858561069e565b50505050505050565b82805461062690610aa9565b90600052602060002090601f016020900481019282610648576000855561068e565b82601f1061066157805160ff191683800117855561068e565b8280016001018555821561068e579182015b8281111561068e578251825591602001919060010190610673565b5061069a929150610712565b5090565b8280546106aa90610aa9565b90600052602060002090601f0160209004810192826106cc576000855561068e565b82601f106106e55782800160ff1982351617855561068e565b8280016001018555821561068e579182015b8281111561068e5782358255916020019190600101906106f7565b5b8082111561069a5760008155600101610713565b60008083601f84011261073957600080fd5b50813567ffffffffffffffff81111561075157600080fd5b60208301915083602082850101111561076957600080fd5b9250929050565b60008060008060008060008060008060c08b8d03121561078f57600080fd5b8a35995060208b013567ffffffffffffffff808211156107ae57600080fd5b6107ba8e838f01610727565b909b50995060408d01359150808211156107d357600080fd5b6107df8e838f01610727565b909950975060608d01359150808211156107f857600080fd5b6108048e838f01610727565b909750955060808d013591508082111561081d57600080fd5b5061082a8d828e01610727565b9150809450508092505060a08b013590509295989b9194979a5092959850565b6000815180845260005b8181101561087057602081850181015186830182015201610854565b81811115610882576000602083870101525b50601f01601f19169290920160200192915050565b6020815260006108aa602083018461084a565b9392505050565b60008060008060008060006080888a0312156108cc57600080fd5b87359650602088013567ffffffffffffffff808211156108eb57600080fd5b6108f78b838c01610727565b909850965060408a013591508082111561091057600080fd5b61091c8b838c01610727565b909650945060608a013591508082111561093557600080fd5b506109428a828b01610727565b989b979a50959850939692959293505050565b6000806000806000806060878903121561096e57600080fd5b863567ffffffffffffffff8082111561098657600080fd5b6109928a838b01610727565b909850965060208901359150808211156109ab57600080fd5b6109b78a838b01610727565b909650945060408901359150808211156109d057600080fd5b506109dd89828a01610727565b979a9699509497509295939492505050565b8183823760009101908152919050565b81835281816020850137506000828201602090810191909152601f909101601f19169091010190565b89815260c060208201526000610a4260c083018a8c6109ff565b8281036040840152610a5581898b6109ff565b90508660608401528281036080840152610a708186886109ff565b9150508260a08301529a9950505050505050505050565b600060208284031215610a9957600080fd5b815180151581146108aa57600080fd5b600181811c90821680610abd57607f821691505b60208210811415610ade57634e487b7160e01b600052602260045260246000fd5b50919050565b868152608060208201526000610afe6080830187896109ff565b8281036040840152610b118186886109ff565b915050826060830152979650505050505050565b602081526000610b396020830184866109ff565b949350505050565b60006001600160a01b03808a16835260a06020840152610b6560a08401898b6109ff565b8381036040850152610b7881888a6109ff565b90508381036060850152610b8c818761084a565b92505080841660808401525098975050505050505050565b606081526000610bb86060830187896109ff565b8281036020840152610bcb8186886109ff565b90508281036040840152610bdf818561084a565b98975050505050505050565b634e487b7160e01b600052604160045260246000fd5b600060208284031215610c1357600080fd5b813567ffffffffffffffff80821115610c2b57600080fd5b818401915084601f830112610c3f57600080fd5b813581811115610c5157610c51610beb565b604051601f8201601f19908116603f01168101908382118183101715610c7957610c79610beb565b81604052828152876020848701011115610c9257600080fd5b82602086016020830137600092810160200192909252509594505050505056fea26469706673582212202c83241bf61454e3bfb76820bdf2cac8013eed42369283e7c2a556b1e30b6cee64736f6c63430008090033",
  "linkReferences": {},
  "deployedLinkReferences": {}
}