{
  "_format": "hh-sol-artifact-1",
  "contractName": "ExecutableImplementation",
  "sourceName": "examples/evm/nonced-execution/ExecutableImplementation.sol",
  "abi": [
    {
      "inputs": [
        {
          "internalType": "address",
          "name": "gateway_",
          "type": "address"
        },
        {
          "internalType": "address",
          "name": "gasService_",
          "type": "address"
        }
      ],
      "stateMutability": "nonpayable",
      "type": "constructor"
    },
    {
      "inputs": [],
      "name": "AlreadyInitialized",
      "type": "error"
    },
    {
      "inputs": [],
      "name": "IncorrectNonce",
      "type": "error"
    },
    {
      "inputs": [],
      "name": "InvalidAddress",
      "type": "error"
    },
    {
      "inputs": [],
      "name": "NotApprovedByGateway",
      "type": "error"
    },
    {
      "inputs": [
        {
          "internalType": "string",
          "name": "sourceAddress",
          "type": "string"
        }
      ],
      "name": "WrongSourceAddress",
      "type": "error"
    },
    {
      "inputs": [
        {
          "internalType": "bytes32",
          "name": "commandId",
          "type": "bytes32"
        },
        {
          "internalType": "string",
          "name": "sourceChain",
          "type": "string"
        },
        {
          "internalType": "string",
          "name": "sourceAddress",
          "type": "string"
        },
        {
          "internalType": "bytes",
          "name": "payload",
          "type": "bytes"
        }
      ],
      "name": "execute",
      "outputs": [],
      "stateMutability": "nonpayable",
      "type": "function"
    },
    {
      "inputs": [
        {
          "internalType": "bytes32",
          "name": "commandId",
          "type": "bytes32"
        },
        {
          "internalType": "string",
          "name": "sourceChain",
          "type": "string"
        },
        {
          "internalType": "string",
          "name": "sourceAddress",
          "type": "string"
        },
        {
          "internalType": "bytes",
          "name": "payload",
          "type": "bytes"
        },
        {
          "internalType": "string",
          "name": "tokenSymbol",
          "type": "string"
        },
        {
          "internalType": "uint256",
          "name": "amount",
          "type": "uint256"
        }
      ],
      "name": "executeWithToken",
      "outputs": [],
      "stateMutability": "nonpayable",
      "type": "function"
    },
    {
      "inputs": [],
      "name": "gasReceiver",
      "outputs": [
        {
          "internalType": "contract IAxelarGasService",
          "name": "",
          "type": "address"
        }
      ],
      "stateMutability": "view",
      "type": "function"
    },
    {
      "inputs": [],
      "name": "gateway",
      "outputs": [
        {
          "internalType": "contract IAxelarGateway",
          "name": "",
          "type": "address"
        }
      ],
      "stateMutability": "view",
      "type": "function"
    },
    {
      "inputs": [
        {
          "internalType": "string",
          "name": "",
          "type": "string"
        },
        {
          "internalType": "address",
          "name": "",
          "type": "address"
        }
      ],
      "name": "incomingNonces",
      "outputs": [
        {
          "internalType": "uint256",
          "name": "",
          "type": "uint256"
        }
      ],
      "stateMutability": "view",
      "type": "function"
    },
    {
      "inputs": [
        {
          "internalType": "string",
          "name": "",
          "type": "string"
        },
        {
          "internalType": "address",
          "name": "",
          "type": "address"
        },
        {
          "internalType": "uint256",
          "name": "",
          "type": "uint256"
        }
      ],
      "name": "messages",
      "outputs": [
        {
          "internalType": "string",
          "name": "",
          "type": "string"
        }
      ],
      "stateMutability": "view",
      "type": "function"
    },
    {
      "inputs": [
        {
          "internalType": "string",
          "name": "",
          "type": "string"
        },
        {
          "internalType": "address",
          "name": "",
          "type": "address"
        }
      ],
      "name": "outgoingNonces",
      "outputs": [
        {
          "internalType": "uint256",
          "name": "",
          "type": "uint256"
        }
      ],
      "stateMutability": "view",
      "type": "function"
    },
    {
      "inputs": [
        {
          "internalType": "string",
          "name": "destinationChain",
          "type": "string"
        },
        {
          "internalType": "string",
          "name": "destinationContract",
          "type": "string"
        },
        {
          "internalType": "bytes",
          "name": "payload",
          "type": "bytes"
        }
      ],
      "name": "sendContractCall",
      "outputs": [],
      "stateMutability": "payable",
      "type": "function"
    }
  ],
  "bytecode": "0x60a060405234801561001057600080fd5b5060405161115038038061115083398101604081905261002f916100a4565b8181816001600160a01b0381166100595760405163e6c4247b60e01b815260040160405180910390fd5b6001600160a01b03908116608052600280546001600160a01b03191692909116919091179055506100d7915050565b80516001600160a01b038116811461009f57600080fd5b919050565b600080604083850312156100b757600080fd5b6100c083610088565b91506100ce60208401610088565b90509250929050565b60805161104a610106600039600081816092015281816102590152818161046c0152610521015261104a6000f3fe60806040526004361061007b5760003560e01c806379a286491161004e57806379a286491461012657806380d14b4a1461017a578063bdf3a1911461019a578063f08e6911146101c757600080fd5b8063116191b6146100805780631a98b2e0146100d157806325421c4c146100f35780634916065814610106575b600080fd5b34801561008c57600080fd5b506100b47f000000000000000000000000000000000000000000000000000000000000000081565b6040516001600160a01b0390911681526020015b60405180910390f35b3480156100dd57600080fd5b506100f16100ec3660046108d5565b61020f565b005b6100f16101013660046109af565b61031a565b34801561011257600080fd5b506100f1610121366004610a49565b6104d7565b34801561013257600080fd5b5061016c610141366004610bd9565b8151602081840181018051600080835293830195830195909520949052929092528152604090205481565b6040519081526020016100c8565b34801561018657600080fd5b506002546100b4906001600160a01b031681565b3480156101a657600080fd5b506101ba6101b5366004610c2b565b6105e7565b6040516100c89190610ce1565b3480156101d357600080fd5b5061016c6101e2366004610bd9565b81516020818401810180516001825292820194820194909420919093529091526000908152604090205481565b60008585604051610221929190610cf4565b6040519081900381207f1876eed900000000000000000000000000000000000000000000000000000000825291506001600160a01b037f00000000000000000000000000000000000000000000000000000000000000001690631876eed99061029e908e908e908e908e908e9089908d908d908d90600401610d2d565b602060405180830381600087803b1580156102b857600080fd5b505af11580156102cc573d6000803e3d6000fd5b505050506040513d601f19601f820116820180604052508101906102f09190610d8c565b61030d57604051631403112d60e21b815260040160405180910390fd5b5050505050505050505050565b60006001878760405161032e929190610cf4565b90815260408051602092819003830181203060008181529185529290205461035d939092918791879101610dae565b604051602081830303815290604052905060018787604051610380929190610cf4565b9081526040805160209281900383019020306000908152925281208054916103a783610de1565b9091555050341561043c576002546040517f0c93e3bb0000000000000000000000000000000000000000000000000000000081526001600160a01b0390911690630c93e3bb9034906104099030908c908c908c908c908a903390600401610e0a565b6000604051808303818588803b15801561042257600080fd5b505af1158015610436573d6000803e3d6000fd5b50505050505b6040517f1c92115f0000000000000000000000000000000000000000000000000000000081526001600160a01b037f00000000000000000000000000000000000000000000000000000000000000001690631c92115f906104a9908a908a908a908a908890600401610e6d565b600060405180830381600087803b1580156104c357600080fd5b505af115801561030d573d6000803e3d6000fd5b600082826040516104e9929190610cf4565b6040519081900381207f5f6970c300000000000000000000000000000000000000000000000000000000825291506001600160a01b037f00000000000000000000000000000000000000000000000000000000000000001690635f6970c390610560908b908b908b908b908b908990600401610eb4565b602060405180830381600087803b15801561057a57600080fd5b505af115801561058e573d6000803e3d6000fd5b505050506040513d601f19601f820116820180604052508101906105b29190610d8c565b6105cf57604051631403112d60e21b815260040160405180910390fd5b6105dd8787878787876106ad565b5050505050505050565b8251602081850181018051600382529282019582019590952091909452835260009182526040808320909352815220805461062190610ef5565b80601f016020809104026020016040519081016040528092919081815260200182805461064d90610ef5565b801561069a5780601f1061066f5761010080835404028352916020019161069a565b820191906000526020600020905b81548152906001019060200180831161067d57829003601f168201915b505050505081565b505050505050505050565b600080806106bd84860186610f30565b925092509250600089896040516106d5929190610cf4565b90815260408051602092819003830190206001600160a01b038516600090815292529020548314610732576040517f674d8d8800000000000000000000000000000000000000000000000000000000815260040160405180910390fd5b60008989604051610744929190610cf4565b90815260408051602092819003830190206001600160a01b03851660009081529252812080549161077483610de1565b91905055506106a289898486856000818060200190518101906107979190610f9d565b905080600387876040516107ac929190610cf4565b90815260408051602092819003830190206001600160a01b038816600090815290835281812087825283522082516107ea93919291909101906107f3565b50505050505050565b8280546107ff90610ef5565b90600052602060002090601f0160209004810192826108215760008555610867565b82601f1061083a57805160ff1916838001178555610867565b82800160010185558215610867579182015b8281111561086757825182559160200191906001019061084c565b50610873929150610877565b5090565b5b808211156108735760008155600101610878565b60008083601f84011261089e57600080fd5b50813567ffffffffffffffff8111156108b657600080fd5b6020830191508360208285010111156108ce57600080fd5b9250929050565b60008060008060008060008060008060c08b8d0312156108f457600080fd5b8a35995060208b013567ffffffffffffffff8082111561091357600080fd5b61091f8e838f0161088c565b909b50995060408d013591508082111561093857600080fd5b6109448e838f0161088c565b909950975060608d013591508082111561095d57600080fd5b6109698e838f0161088c565b909750955060808d013591508082111561098257600080fd5b5061098f8d828e0161088c565b9150809450508092505060a08b013590509295989b9194979a5092959850565b600080600080600080606087890312156109c857600080fd5b863567ffffffffffffffff808211156109e057600080fd5b6109ec8a838b0161088c565b90985096506020890135915080821115610a0557600080fd5b610a118a838b0161088c565b90965094506040890135915080821115610a2a57600080fd5b50610a3789828a0161088c565b979a9699509497509295939492505050565b60008060008060008060006080888a031215610a6457600080fd5b87359650602088013567ffffffffffffffff80821115610a8357600080fd5b610a8f8b838c0161088c565b909850965060408a0135915080821115610aa857600080fd5b610ab48b838c0161088c565b909650945060608a0135915080821115610acd57600080fd5b50610ada8a828b0161088c565b989b979a50959850939692959293505050565b634e487b7160e01b600052604160045260246000fd5b604051601f8201601f1916810167ffffffffffffffff81118282101715610b2c57610b2c610aed565b604052919050565b600067ffffffffffffffff821115610b4e57610b4e610aed565b50601f01601f191660200190565b6000610b6f610b6a84610b34565b610b03565b9050828152838383011115610b8357600080fd5b828260208301376000602084830101529392505050565b600082601f830112610bab57600080fd5b610bba83833560208501610b5c565b9392505050565b6001600160a01b0381168114610bd657600080fd5b50565b60008060408385031215610bec57600080fd5b823567ffffffffffffffff811115610c0357600080fd5b610c0f85828601610b9a565b9250506020830135610c2081610bc1565b809150509250929050565b600080600060608486031215610c4057600080fd5b833567ffffffffffffffff811115610c5757600080fd5b610c6386828701610b9a565b9350506020840135610c7481610bc1565b929592945050506040919091013590565b60005b83811015610ca0578181015183820152602001610c88565b83811115610caf576000848401525b50505050565b60008151808452610ccd816020860160208601610c85565b601f01601f19169290920160200192915050565b602081526000610bba6020830184610cb5565b8183823760009101908152919050565b81835281816020850137506000828201602090810191909152601f909101601f19169091010190565b89815260c060208201526000610d4760c083018a8c610d04565b8281036040840152610d5a81898b610d04565b90508660608401528281036080840152610d75818688610d04565b9150508260a08301529a9950505050505050505050565b600060208284031215610d9e57600080fd5b81518015158114610bba57600080fd5b8481526001600160a01b0384166020820152606060408201526000610dd7606083018486610d04565b9695505050505050565b6000600019821415610e0357634e487b7160e01b600052601160045260246000fd5b5060010190565b60006001600160a01b03808a16835260a06020840152610e2e60a08401898b610d04565b8381036040850152610e4181888a610d04565b90508381036060850152610e558187610cb5565b92505080841660808401525098975050505050505050565b606081526000610e81606083018789610d04565b8281036020840152610e94818688610d04565b90508281036040840152610ea88185610cb5565b98975050505050505050565b868152608060208201526000610ece608083018789610d04565b8281036040840152610ee1818688610d04565b915050826060830152979650505050505050565b600181811c90821680610f0957607f821691505b60208210811415610f2a57634e487b7160e01b600052602260045260246000fd5b50919050565b600080600060608486031215610f4557600080fd5b833592506020840135610f5781610bc1565b9150604084013567ffffffffffffffff811115610f7357600080fd5b8401601f81018613610f8457600080fd5b610f9386823560208401610b5c565b9150509250925092565b600060208284031215610faf57600080fd5b815167ffffffffffffffff811115610fc657600080fd5b8201601f81018413610fd757600080fd5b8051610fe5610b6a82610b34565b818152856020838501011115610ffa57600080fd5b61100b826020830160208601610c85565b9594505050505056fea26469706673582212208b4aa4f43d31368b9811d2c508d4cc3ddb815405e066d41cc0e17cdd0aceced964736f6c63430008090033",
  "linkReferences": {},
  "deployedLinkReferences": {}
}