{
  "_format": "hh-sol-artifact-1",
  "contractName": "ERC20CrossChain",
  "sourceName": "examples/evm/cross-chain-token/ERC20CrossChain.sol",
  "abi": [
    {
      "inputs": [
        {
          "internalType": "address",
          "name": "gateway_",
          "type": "address"
        },
        {
          "internalType": "address",
          "name": "gasReceiver_",
          "type": "address"
        },
        {
          "internalType": "uint8",
          "name": "decimals_",
          "type": "uint8"
        }
      ],
      "stateMutability": "nonpayable",
      "type": "constructor"
    },
    {
      "inputs": [],
      "name": "AlreadyInitialized",
      "type": "error"
    },
    {
      "inputs": [],
      "name": "InvalidAccount",
      "type": "error"
    },
    {
      "inputs": [],
      "name": "InvalidAddress",
      "type": "error"
    },
    {
      "inputs": [],
      "name": "InvalidAddressString",
      "type": "error"
    },
    {
      "inputs": [],
      "name": "InvalidCodeHash",
      "type": "error"
    },
    {
      "inputs": [],
      "name": "InvalidImplementation",
      "type": "error"
    },
    {
      "inputs": [],
      "name": "InvalidOwner",
      "type": "error"
    },
    {
      "inputs": [],
      "name": "NotApprovedByGateway",
      "type": "error"
    },
    {
      "inputs": [],
      "name": "NotOwner",
      "type": "error"
    },
    {
      "inputs": [],
      "name": "NotProxy",
      "type": "error"
    },
    {
      "inputs": [],
      "name": "SetupFailed",
      "type": "error"
    },
    {
      "anonymous": false,
      "inputs": [
        {
          "indexed": true,
          "internalType": "address",
          "name": "owner",
          "type": "address"
        },
        {
          "indexed": true,
          "internalType": "address",
          "name": "spender",
          "type": "address"
        },
        {
          "indexed": false,
          "internalType": "uint256",
          "name": "value",
          "type": "uint256"
        }
      ],
      "name": "Approval",
      "type": "event"
    },
    {
      "anonymous": false,
      "inputs": [
        {
          "indexed": false,
          "internalType": "string",
          "name": "sourceChain",
          "type": "string"
        },
        {
          "indexed": false,
          "internalType": "string",
          "name": "sourceAddress",
          "type": "string"
        }
      ],
      "name": "FalseSender",
      "type": "event"
    },
    {
      "anonymous": false,
      "inputs": [
        {
          "indexed": true,
          "internalType": "address",
          "name": "newOwner",
          "type": "address"
        }
      ],
      "name": "OwnershipTransferStarted",
      "type": "event"
    },
    {
      "anonymous": false,
      "inputs": [
        {
          "indexed": true,
          "internalType": "address",
          "name": "newOwner",
          "type": "address"
        }
      ],
      "name": "OwnershipTransferred",
      "type": "event"
    },
    {
      "anonymous": false,
      "inputs": [
        {
          "indexed": true,
          "internalType": "address",
          "name": "from",
          "type": "address"
        },
        {
          "indexed": true,
          "internalType": "address",
          "name": "to",
          "type": "address"
        },
        {
          "indexed": false,
          "internalType": "uint256",
          "name": "value",
          "type": "uint256"
        }
      ],
      "name": "Transfer",
      "type": "event"
    },
    {
      "anonymous": false,
      "inputs": [
        {
          "indexed": true,
          "internalType": "address",
          "name": "newImplementation",
          "type": "address"
        }
      ],
      "name": "Upgraded",
      "type": "event"
    },
    {
      "inputs": [],
      "name": "acceptOwnership",
      "outputs": [],
      "stateMutability": "nonpayable",
      "type": "function"
    },
    {
      "inputs": [
        {
          "internalType": "address",
          "name": "",
          "type": "address"
        },
        {
          "internalType": "address",
          "name": "",
          "type": "address"
        }
      ],
      "name": "allowance",
      "outputs": [
        {
          "internalType": "uint256",
          "name": "",
          "type": "uint256"
        }
      ],
      "stateMutability": "view",
      "type": "function"
    },
    {
      "inputs": [
        {
          "internalType": "address",
          "name": "spender",
          "type": "address"
        },
        {
          "internalType": "uint256",
          "name": "amount",
          "type": "uint256"
        }
      ],
      "name": "approve",
      "outputs": [
        {
          "internalType": "bool",
          "name": "",
          "type": "bool"
        }
      ],
      "stateMutability": "nonpayable",
      "type": "function"
    },
    {
      "inputs": [
        {
          "internalType": "address",
          "name": "",
          "type": "address"
        }
      ],
      "name": "balanceOf",
      "outputs": [
        {
          "internalType": "uint256",
          "name": "",
          "type": "uint256"
        }
      ],
      "stateMutability": "view",
      "type": "function"
    },
    {
      "inputs": [],
      "name": "contractId",
      "outputs": [
        {
          "internalType": "bytes32",
          "name": "",
          "type": "bytes32"
        }
      ],
      "stateMutability": "pure",
      "type": "function"
    },
    {
      "inputs": [],
      "name": "decimals",
      "outputs": [
        {
          "internalType": "uint8",
          "name": "",
          "type": "uint8"
        }
      ],
      "stateMutability": "view",
      "type": "function"
    },
    {
      "inputs": [
        {
          "internalType": "address",
          "name": "spender",
          "type": "address"
        },
        {
          "internalType": "uint256",
          "name": "subtractedValue",
          "type": "uint256"
        }
      ],
      "name": "decreaseAllowance",
      "outputs": [
        {
          "internalType": "bool",
          "name": "",
          "type": "bool"
        }
      ],
      "stateMutability": "nonpayable",
      "type": "function"
    },
    {
      "inputs": [
        {
          "internalType": "bytes32",
          "name": "commandId",
          "type": "bytes32"
        },
        {
          "internalType": "string",
          "name": "sourceChain",
          "type": "string"
        },
        {
          "internalType": "string",
          "name": "sourceAddress",
          "type": "string"
        },
        {
          "internalType": "bytes",
          "name": "payload",
          "type": "bytes"
        }
      ],
      "name": "execute",
      "outputs": [],
      "stateMutability": "nonpayable",
      "type": "function"
    },
    {
      "inputs": [
        {
          "internalType": "bytes32",
          "name": "commandId",
          "type": "bytes32"
        },
        {
          "internalType": "string",
          "name": "sourceChain",
          "type": "string"
        },
        {
          "internalType": "string",
          "name": "sourceAddress",
          "type": "string"
        },
        {
          "internalType": "bytes",
          "name": "payload",
          "type": "bytes"
        },
        {
          "internalType": "string",
          "name": "tokenSymbol",
          "type": "string"
        },
        {
          "internalType": "uint256",
          "name": "amount",
          "type": "uint256"
        }
      ],
      "name": "executeWithToken",
      "outputs": [],
      "stateMutability": "nonpayable",
      "type": "function"
    },
    {
      "inputs": [],
      "name": "gasService",
      "outputs": [
        {
          "internalType": "contract IAxelarGasService",
          "name": "",
          "type": "address"
        }
      ],
      "stateMutability": "view",
      "type": "function"
    },
    {
      "inputs": [],
      "name": "gateway",
      "outputs": [
        {
          "internalType": "contract IAxelarGateway",
          "name": "",
          "type": "address"
        }
      ],
      "stateMutability": "view",
      "type": "function"
    },
    {
      "inputs": [
        {
          "internalType": "uint256",
          "name": "amount",
          "type": "uint256"
        }
      ],
      "name": "giveMe",
      "outputs": [],
      "stateMutability": "nonpayable",
      "type": "function"
    },
    {
      "inputs": [],
      "name": "implementation",
      "outputs": [
        {
          "internalType": "address",
          "name": "implementation_",
          "type": "address"
        }
      ],
      "stateMutability": "view",
      "type": "function"
    },
    {
      "inputs": [
        {
          "internalType": "address",
          "name": "spender",
          "type": "address"
        },
        {
          "internalType": "uint256",
          "name": "addedValue",
          "type": "uint256"
        }
      ],
      "name": "increaseAllowance",
      "outputs": [
        {
          "internalType": "bool",
          "name": "",
          "type": "bool"
        }
      ],
      "stateMutability": "nonpayable",
      "type": "function"
    },
    {
      "inputs": [],
      "name": "name",
      "outputs": [
        {
          "internalType": "string",
          "name": "",
          "type": "string"
        }
      ],
      "stateMutability": "view",
      "type": "function"
    },
    {
      "inputs": [],
      "name": "owner",
      "outputs": [
        {
          "internalType": "address",
          "name": "owner_",
          "type": "address"
        }
      ],
      "stateMutability": "view",
      "type": "function"
    },
    {
      "inputs": [],
      "name": "pendingOwner",
      "outputs": [
        {
          "internalType": "address",
          "name": "owner_",
          "type": "address"
        }
      ],
      "stateMutability": "view",
      "type": "function"
    },
    {
      "inputs": [
        {
          "internalType": "bytes",
          "name": "data",
          "type": "bytes"
        }
      ],
      "name": "setup",
      "outputs": [],
      "stateMutability": "nonpayable",
      "type": "function"
    },
    {
      "inputs": [],
      "name": "symbol",
      "outputs": [
        {
          "internalType": "string",
          "name": "",
          "type": "string"
        }
      ],
      "stateMutability": "view",
      "type": "function"
    },
    {
      "inputs": [],
      "name": "totalSupply",
      "outputs": [
        {
          "internalType": "uint256",
          "name": "",
          "type": "uint256"
        }
      ],
      "stateMutability": "view",
      "type": "function"
    },
    {
      "inputs": [
        {
          "internalType": "address",
          "name": "recipient",
          "type": "address"
        },
        {
          "internalType": "uint256",
          "name": "amount",
          "type": "uint256"
        }
      ],
      "name": "transfer",
      "outputs": [
        {
          "internalType": "bool",
          "name": "",
          "type": "bool"
        }
      ],
      "stateMutability": "nonpayable",
      "type": "function"
    },
    {
      "inputs": [
        {
          "internalType": "address",
          "name": "sender",
          "type": "address"
        },
        {
          "internalType": "address",
          "name": "recipient",
          "type": "address"
        },
        {
          "internalType": "uint256",
          "name": "amount",
          "type": "uint256"
        }
      ],
      "name": "transferFrom",
      "outputs": [
        {
          "internalType": "bool",
          "name": "",
          "type": "bool"
        }
      ],
      "stateMutability": "nonpayable",
      "type": "function"
    },
    {
      "inputs": [
        {
          "internalType": "address",
          "name": "newOwner",
          "type": "address"
        }
      ],
      "name": "transferOwnership",
      "outputs": [],
      "stateMutability": "nonpayable",
      "type": "function"
    },
    {
      "inputs": [
        {
          "internalType": "string",
          "name": "destinationChain",
          "type": "string"
        },
        {
          "internalType": "address",
          "name": "destinationAddress",
          "type": "address"
        },
        {
          "internalType": "uint256",
          "name": "amount",
          "type": "uint256"
        }
      ],
      "name": "transferRemote",
      "outputs": [],
      "stateMutability": "payable",
      "type": "function"
    },
    {
      "inputs": [
        {
          "internalType": "address",
          "name": "newImplementation",
          "type": "address"
        },
        {
          "internalType": "bytes32",
          "name": "newImplementationCodeHash",
          "type": "bytes32"
        },
        {
          "internalType": "bytes",
          "name": "params",
          "type": "bytes"
        }
      ],
      "name": "upgrade",
      "outputs": [],
      "stateMutability": "nonpayable",
      "type": "function"
    }
  ],
  "bytecode": "0x60e06040523480156200001157600080fd5b506040516200235e3803806200235e833981016040819052620000349162000191565b6040805160208082018352600080835283519182019093529182529082856001600160a01b0381166200007a5760405163e6c4247b60e01b815260040160405180910390fd5b6001600160a01b031660805282516200009b906003906020860190620000ce565b508151620000b1906004906020850190620000ce565b5060ff1660a0525050506001600160a01b031660c0525062000221565b828054620000dc90620001e4565b90600052602060002090601f0160209004810192826200010057600085556200014b565b82601f106200011b57805160ff19168380011785556200014b565b828001600101855582156200014b579182015b828111156200014b5782518255916020019190600101906200012e565b50620001599291506200015d565b5090565b5b808211156200015957600081556001016200015e565b80516001600160a01b03811681146200018c57600080fd5b919050565b600080600060608486031215620001a757600080fd5b620001b28462000174565b9250620001c26020850162000174565b9150604084015160ff81168114620001d957600080fd5b809150509250925092565b600181811c90821680620001f957607f821691505b602082108114156200021b57634e487b7160e01b600052602260045260246000fd5b50919050565b60805160a05160c0516120f16200026d600039600081816103a70152610964015260006102ba01526000818161020801528181610681015281816108270152610a0801526120f16000f3fe6080604052600436106101965760003560e01c80636a22d8cc116100e15780639ded06df1161008a578063a9059cbb11610064578063a9059cbb146104e7578063dd62ed3e14610507578063e30c39781461053f578063f2fde38b1461057357600080fd5b80639ded06df14610487578063a3499c73146104a7578063a457c2d7146104c757600080fd5b80638291286c116100bb5780638291286c1461040b5780638da5cb5b1461043e57806395d89b411461047257600080fd5b80636a22d8cc1461039557806370a08231146103c957806379ba5097146103f657600080fd5b8063313ce56711610143578063491606581161011d578063491606581461032e57806355d55dc11461034e5780635c60da1b1461036157600080fd5b8063313ce567146102a857806339509351146102ee57806344dee17f1461030e57600080fd5b806318160ddd1161017457806318160ddd146102425780631a98b2e01461026657806323b872dd1461028857600080fd5b806306fdde031461019b578063095ea7b3146101c6578063116191b6146101f6575b600080fd5b3480156101a757600080fd5b506101b0610593565b6040516101bd91906118db565b60405180910390f35b3480156101d257600080fd5b506101e66101e136600461190a565b610621565b60405190151581526020016101bd565b34801561020257600080fd5b5061022a7f000000000000000000000000000000000000000000000000000000000000000081565b6040516001600160a01b0390911681526020016101bd565b34801561024e57600080fd5b5061025860025481565b6040519081526020016101bd565b34801561027257600080fd5b5061028661028136600461197f565b610637565b005b34801561029457600080fd5b506101e66102a3366004611a59565b610742565b3480156102b457600080fd5b506102dc7f000000000000000000000000000000000000000000000000000000000000000081565b60405160ff90911681526020016101bd565b3480156102fa57600080fd5b506101e661030936600461190a565b610799565b34801561031a57600080fd5b50610286610329366004611a9a565b6107d0565b34801561033a57600080fd5b50610286610349366004611ab3565b6107dd565b61028661035c366004611b57565b6108ed565b34801561036d57600080fd5b507f360894a13ba1a3210667c828492db98dca3e2076cc3735a920a3ca505d382bbc5461022a565b3480156103a157600080fd5b5061022a7f000000000000000000000000000000000000000000000000000000000000000081565b3480156103d557600080fd5b506102586103e4366004611bb4565b60006020819052908152604090205481565b34801561040257600080fd5b50610286610a7d565b34801561041757600080fd5b507f6fd43e7cffc31bb581d7421c8698e29aa2bd8e7186a394b85299908b4eb9b175610258565b34801561044a57600080fd5b507f02016836a56b71f0d02689e69e326f4f4c1b9057164ef592671cf0d37c8040c05461022a565b34801561047e57600080fd5b506101b0610b67565b34801561049357600080fd5b506102866104a2366004611bd1565b610b74565b3480156104b357600080fd5b506102866104c2366004611c13565b610bed565b3480156104d357600080fd5b506101e66104e236600461190a565b610f09565b3480156104f357600080fd5b506101e661050236600461190a565b610f40565b34801561051357600080fd5b50610258610522366004611c6f565b600160209081526000928352604080842090915290825290205481565b34801561054b57600080fd5b507f9855384122b55936fbfb8ca5120e63c6537a1ac40caf6ae33502b3c5da8c87d15461022a565b34801561057f57600080fd5b5061028661058e366004611bb4565b610f4d565b600380546105a090611ca8565b80601f01602080910402602001604051908101604052809291908181526020018280546105cc90611ca8565b80156106195780601f106105ee57610100808354040283529160200191610619565b820191906000526020600020905b8154815290600101906020018083116105fc57829003601f168201915b505050505081565b600061062e338484610ff5565b50600192915050565b60008585604051610649929190611ce3565b6040519081900381207f1876eed900000000000000000000000000000000000000000000000000000000825291506001600160a01b037f00000000000000000000000000000000000000000000000000000000000000001690631876eed9906106c6908e908e908e908e908e9089908d908d908d90600401611d1c565b602060405180830381600087803b1580156106e057600080fd5b505af11580156106f4573d6000803e3d6000fd5b505050506040513d601f19601f820116820180604052508101906107189190611d7b565b61073557604051631403112d60e21b815260040160405180910390fd5b5050505050505050505050565b6001600160a01b0383166000908152600160209081526040808320338452909152812054600019811461078357610783853361077e8685611db3565b610ff5565b61078e858585611092565b506001949350505050565b3360008181526001602090815260408083206001600160a01b0387168452909152812054909161062e91859061077e908690611dca565b6107da338261116e565b50565b600082826040516107ef929190611ce3565b6040519081900381207f5f6970c300000000000000000000000000000000000000000000000000000000825291506001600160a01b037f00000000000000000000000000000000000000000000000000000000000000001690635f6970c390610866908b908b908b908b908b908990600401611de2565b602060405180830381600087803b15801561088057600080fd5b505af1158015610894573d6000803e3d6000fd5b505050506040513d601f19601f820116820180604052508101906108b89190611d7b565b6108d557604051631403112d60e21b815260040160405180910390fd5b6108e387878787878761121f565b5050505050505050565b6108f733826112dd565b604080516001600160a01b03841660208201528082018390528151808203830181526060909101909152600061092c30611388565b905034156109d8576040517f0c93e3bb0000000000000000000000000000000000000000000000000000000081526001600160a01b037f00000000000000000000000000000000000000000000000000000000000000001690630c93e3bb9034906109a59030908b908b9088908a903390600401611e23565b6000604051808303818588803b1580156109be57600080fd5b505af11580156109d2573d6000803e3d6000fd5b50505050505b6040517f1c92115f0000000000000000000000000000000000000000000000000000000081526001600160a01b037f00000000000000000000000000000000000000000000000000000000000000001690631c92115f90610a43908990899086908890600401611e84565b600060405180830381600087803b158015610a5d57600080fd5b505af1158015610a71573d6000803e3d6000fd5b50505050505050505050565b6000610aa77f9855384122b55936fbfb8ca5120e63c6537a1ac40caf6ae33502b3c5da8c87d15490565b90506001600160a01b0381163314610aeb576040517f49e27cff00000000000000000000000000000000000000000000000000000000815260040160405180910390fd5b6040516001600160a01b038216907f04dba622d284ed0014ee4b9a6a68386be1a4c08a4913ae272de89199cc68616390600090a260007f9855384122b55936fbfb8ca5120e63c6537a1ac40caf6ae33502b3c5da8c87d1557f02016836a56b71f0d02689e69e326f4f4c1b9057164ef592671cf0d37c8040c055565b600480546105a090611ca8565b6000610b9e7f360894a13ba1a3210667c828492db98dca3e2076cc3735a920a3ca505d382bbc5490565b6001600160a01b03161415610bdf576040517fbf10dd3a00000000000000000000000000000000000000000000000000000000815260040160405180910390fd5b610be982826115e0565b5050565b33610c167f02016836a56b71f0d02689e69e326f4f4c1b9057164ef592671cf0d37c8040c05490565b6001600160a01b031614610c3d576040516330cd747160e01b815260040160405180910390fd5b306001600160a01b0316638291286c6040518163ffffffff1660e01b815260040160206040518083038186803b158015610c7657600080fd5b505afa158015610c8a573d6000803e3d6000fd5b505050506040513d601f19601f82011682018060405250810190610cae9190611ec9565b846001600160a01b0316638291286c6040518163ffffffff1660e01b815260040160206040518083038186803b158015610ce757600080fd5b505afa158015610cfb573d6000803e3d6000fd5b505050506040513d601f19601f82011682018060405250810190610d1f9190611ec9565b14610d56576040517f68155f9a00000000000000000000000000000000000000000000000000000000815260040160405180910390fd5b836001600160a01b03163f8314610d99576040517f8f84fb2400000000000000000000000000000000000000000000000000000000815260040160405180910390fd5b8015610eae576000846001600160a01b0316639ded06df60e01b8484604051602401610dc6929190611ee2565b60408051601f198184030181529181526020820180517bffffffffffffffffffffffffffffffffffffffffffffffffffffffff167fffffffff00000000000000000000000000000000000000000000000000000000909416939093179092529051610e319190611efe565b600060405180830381855af49150503d8060008114610e6c576040519150601f19603f3d011682016040523d82523d6000602084013e610e71565b606091505b5050905080610eac576040517f97905dfb00000000000000000000000000000000000000000000000000000000815260040160405180910390fd5b505b6040516001600160a01b038516907fbc7cd75a20ee27fd9adebab32041f755214dbc6bffa90cc0225b39da2e5c2d3b90600090a25050507f360894a13ba1a3210667c828492db98dca3e2076cc3735a920a3ca505d382bbc55565b3360008181526001602090815260408083206001600160a01b0387168452909152812054909161062e91859061077e908690611db3565b600061062e338484611092565b33610f767f02016836a56b71f0d02689e69e326f4f4c1b9057164ef592671cf0d37c8040c05490565b6001600160a01b031614610f9d576040516330cd747160e01b815260040160405180910390fd5b6040516001600160a01b038216907fd9be0e8e07417e00f2521db636cb53e316fd288f5051f16d2aa2bf0c3938a87690600090a27f9855384122b55936fbfb8ca5120e63c6537a1ac40caf6ae33502b3c5da8c87d155565b6001600160a01b038316158061101257506001600160a01b038216155b1561103057604051630da30f6560e31b815260040160405180910390fd5b6001600160a01b0383811660008181526001602090815260408083209487168084529482529182902085905590518481527f8c5be1e5ebec7d5bd14f71427d1e84f3dd0314c0f7b2291e5b200ac8c7c3b92591015b60405180910390a3505050565b6001600160a01b03831615806110af57506001600160a01b038216155b156110cd57604051630da30f6560e31b815260040160405180910390fd5b6001600160a01b038316600090815260208190526040812080548392906110f5908490611db3565b90915550506001600160a01b03821660009081526020819052604081208054839290611122908490611dca565b92505081905550816001600160a01b0316836001600160a01b03167fddf252ad1be2c89b69c2b068fc378daa952ba7f163c4a11628f55a4df523b3ef8360405161108591815260200190565b6001600160a01b03821661119557604051630da30f6560e31b815260040160405180910390fd5b80600260008282546111a79190611dca565b90915550506001600160a01b038216600090815260208190526040812080548392906111d4908490611dca565b90915550506040518181526001600160a01b038316906000907fddf252ad1be2c89b69c2b068fc378daa952ba7f163c4a11628f55a4df523b3ef906020015b60405180910390a35050565b306001600160a01b031661126885858080601f01602080910402602001604051908101604052809392919081815260200183838082843760009201919091525061166792505050565b6001600160a01b0316146112b8577f03daa0914739c74a32f06993c062b0ec6a2c0b8a39b5a0b8bff2a12ef55b9dc5848486866040516112ab9493929190611f1a565b60405180910390a16112d5565b6000806112c78385018561190a565b915091506108e3828261116e565b505050505050565b6001600160a01b03821661130457604051630da30f6560e31b815260040160405180910390fd5b6001600160a01b0382166000908152602081905260408120805483929061132c908490611db3565b9250508190555080600260008282546113459190611db3565b90915550506040518181526000906001600160a01b038416907fddf252ad1be2c89b69c2b068fc378daa952ba7f163c4a11628f55a4df523b3ef90602001611213565b604051606082811b6bffffffffffffffffffffffff191660208301529060009060340160408051601f198184030181528282528051838301909252601083527f303132333435363738396162636465660000000000000000000000000000000060208401528051909350909190600090611403906002611f41565b61140e906002611dca565b67ffffffffffffffff81111561142657611426611f60565b6040519080825280601f01601f191660200182016040528015611450576020820181803683370190505b509050600360fc1b8160008151811061146b5761146b611f76565b60200101906001600160f81b031916908160001a905350600f60fb1b8160018151811061149a5761149a611f76565b60200101906001600160f81b031916908160001a90535060005b838110156115d6578260048683815181106114d1576114d1611f76565b016020015182516001600160f81b031990911690911c60f81c9081106114f9576114f9611f76565b01602001516001600160f81b03191682611514836002611f41565b61151f906002611dca565b8151811061152f5761152f611f76565b60200101906001600160f81b031916908160001a9053508285828151811061155957611559611f76565b602091010151815160f89190911c600f1690811061157957611579611f76565b01602001516001600160f81b03191682611594836002611f41565b61159f906003611dca565b815181106115af576115af611f76565b60200101906001600160f81b031916908160001a9053506115cf81611f8c565b90506114b4565b5095945050505050565b6000806115ef83850185612034565b915091506003805461160090611ca8565b159050611639576040517f0dc149f000000000000000000000000000000000000000000000000000000000815260040160405180910390fd5b815161164c9060039060208501906117e6565b5080516116609060049060208401906117e6565b5050505050565b6000808290506000808251602a1415806116a757508260008151811061168f5761168f611f76565b6020910101516001600160f81b031916600360fc1b14155b806116d85750826001815181106116c0576116c0611f76565b6020910101516001600160f81b031916600f60fb1b14155b156116f657604051636fa478cf60e11b815260040160405180910390fd5b60025b602a8110156117dc5783818151811061171457611714611f76565b016020015160f81c915060618210801590611733575060668260ff1611155b1561174a57611743605783612098565b91506117b3565b60418260ff1610158015611762575060468260ff1611155b1561177257611743603783612098565b60308260ff161015801561178a575060398260ff1611155b1561179a57611743603083612098565b604051636fa478cf60e11b815260040160405180910390fd5b60026117c0826029611db3565b60ff8416911b1b92909217916117d581611f8c565b90506116f9565b5090949350505050565b8280546117f290611ca8565b90600052602060002090601f016020900481019282611814576000855561185a565b82601f1061182d57805160ff191683800117855561185a565b8280016001018555821561185a579182015b8281111561185a57825182559160200191906001019061183f565b5061186692915061186a565b5090565b5b80821115611866576000815560010161186b565b60005b8381101561189a578181015183820152602001611882565b838111156118a9576000848401525b50505050565b600081518084526118c781602086016020860161187f565b601f01601f19169290920160200192915050565b6020815260006118ee60208301846118af565b9392505050565b6001600160a01b03811681146107da57600080fd5b6000806040838503121561191d57600080fd5b8235611928816118f5565b946020939093013593505050565b60008083601f84011261194857600080fd5b50813567ffffffffffffffff81111561196057600080fd5b60208301915083602082850101111561197857600080fd5b9250929050565b60008060008060008060008060008060c08b8d03121561199e57600080fd5b8a35995060208b013567ffffffffffffffff808211156119bd57600080fd5b6119c98e838f01611936565b909b50995060408d01359150808211156119e257600080fd5b6119ee8e838f01611936565b909950975060608d0135915080821115611a0757600080fd5b611a138e838f01611936565b909750955060808d0135915080821115611a2c57600080fd5b50611a398d828e01611936565b9150809450508092505060a08b013590509295989b9194979a5092959850565b600080600060608486031215611a6e57600080fd5b8335611a79816118f5565b92506020840135611a89816118f5565b929592945050506040919091013590565b600060208284031215611aac57600080fd5b5035919050565b60008060008060008060006080888a031215611ace57600080fd5b87359650602088013567ffffffffffffffff80821115611aed57600080fd5b611af98b838c01611936565b909850965060408a0135915080821115611b1257600080fd5b611b1e8b838c01611936565b909650945060608a0135915080821115611b3757600080fd5b50611b448a828b01611936565b989b979a50959850939692959293505050565b60008060008060608587031215611b6d57600080fd5b843567ffffffffffffffff811115611b8457600080fd5b611b9087828801611936565b9095509350506020850135611ba4816118f5565b9396929550929360400135925050565b600060208284031215611bc657600080fd5b81356118ee816118f5565b60008060208385031215611be457600080fd5b823567ffffffffffffffff811115611bfb57600080fd5b611c0785828601611936565b90969095509350505050565b60008060008060608587031215611c2957600080fd5b8435611c34816118f5565b935060208501359250604085013567ffffffffffffffff811115611c5757600080fd5b611c6387828801611936565b95989497509550505050565b60008060408385031215611c8257600080fd5b8235611c8d816118f5565b91506020830135611c9d816118f5565b809150509250929050565b600181811c90821680611cbc57607f821691505b60208210811415611cdd57634e487b7160e01b600052602260045260246000fd5b50919050565b8183823760009101908152919050565b81835281816020850137506000828201602090810191909152601f909101601f19169091010190565b89815260c060208201526000611d3660c083018a8c611cf3565b8281036040840152611d4981898b611cf3565b90508660608401528281036080840152611d64818688611cf3565b9150508260a08301529a9950505050505050505050565b600060208284031215611d8d57600080fd5b815180151581146118ee57600080fd5b634e487b7160e01b600052601160045260246000fd5b600082821015611dc557611dc5611d9d565b500390565b60008219821115611ddd57611ddd611d9d565b500190565b868152608060208201526000611dfc608083018789611cf3565b8281036040840152611e0f818688611cf3565b915050826060830152979650505050505050565b60006001600160a01b03808916835260a06020840152611e4760a08401888a611cf3565b8381036040850152611e5981886118af565b90508381036060850152611e6d81876118af565b925050808416608084015250979650505050505050565b606081526000611e98606083018688611cf3565b8281036020840152611eaa81866118af565b90508281036040840152611ebe81856118af565b979650505050505050565b600060208284031215611edb57600080fd5b5051919050565b602081526000611ef6602083018486611cf3565b949350505050565b60008251611f1081846020870161187f565b9190910192915050565b604081526000611f2e604083018688611cf3565b8281036020840152611ebe818587611cf3565b6000816000190483118215151615611f5b57611f5b611d9d565b500290565b634e487b7160e01b600052604160045260246000fd5b634e487b7160e01b600052603260045260246000fd5b6000600019821415611fa057611fa0611d9d565b5060010190565b600082601f830112611fb857600080fd5b813567ffffffffffffffff80821115611fd357611fd3611f60565b604051601f8301601f19908116603f01168101908282118183101715611ffb57611ffb611f60565b8160405283815286602085880101111561201457600080fd5b836020870160208301376000602085830101528094505050505092915050565b6000806040838503121561204757600080fd5b823567ffffffffffffffff8082111561205f57600080fd5b61206b86838701611fa7565b9350602085013591508082111561208157600080fd5b5061208e85828601611fa7565b9150509250929050565b600060ff821660ff8416808210156120b2576120b2611d9d565b9003939250505056fea26469706673582212200600a76388ef779fbf87747e7449da6fae8162932a4e655e5be5e7f65fcc42f364736f6c63430008090033",
  "linkReferences": {},
  "deployedLinkReferences": {}
}