{
  "_format": "hh-sol-artifact-1",
  "contractName": "ERC721Demo",
  "sourceName": "examples/evm/nft-auctionhouse/ERC721Demo.sol",
  "abi": [
    {
      "inputs": [
        {
          "internalType": "string",
          "name": "name_",
          "type": "string"
        },
        {
          "internalType": "string",
          "name": "symbol_",
          "type": "string"
        }
      ],
      "stateMutability": "nonpayable",
      "type": "constructor"
    },
    {
      "anonymous": false,
      "inputs": [
        {
          "indexed": true,
          "internalType": "address",
          "name": "owner",
          "type": "address"
        },
        {
          "indexed": true,
          "internalType": "address",
          "name": "approved",
          "type": "address"
        },
        {
          "indexed": true,
          "internalType": "uint256",
          "name": "tokenId",
          "type": "uint256"
        }
      ],
      "name": "Approval",
      "type": "event"
    },
    {
      "anonymous": false,
      "inputs": [
        {
          "indexed": true,
          "internalType": "address",
          "name": "owner",
          "type": "address"
        },
        {
          "indexed": true,
          "internalType": "address",
          "name": "operator",
          "type": "address"
        },
        {
          "indexed": false,
          "internalType": "bool",
          "name": "approved",
          "type": "bool"
        }
      ],
      "name": "ApprovalForAll",
      "type": "event"
    },
    {
      "anonymous": false,
      "inputs": [
        {
          "indexed": true,
          "internalType": "address",
          "name": "from",
          "type": "address"
        },
        {
          "indexed": true,
          "internalType": "address",
          "name": "to",
          "type": "address"
        },
        {
          "indexed": true,
          "internalType": "uint256",
          "name": "tokenId",
          "type": "uint256"
        }
      ],
      "name": "Transfer",
      "type": "event"
    },
    {
      "inputs": [
        {
          "internalType": "address",
          "name": "to",
          "type": "address"
        },
        {
          "internalType": "uint256",
          "name": "tokenId",
          "type": "uint256"
        }
      ],
      "name": "approve",
      "outputs": [],
      "stateMutability": "nonpayable",
      "type": "function"
    },
    {
      "inputs": [
        {
          "internalType": "address",
          "name": "owner",
          "type": "address"
        }
      ],
      "name": "balanceOf",
      "outputs": [
        {
          "internalType": "uint256",
          "name": "",
          "type": "uint256"
        }
      ],
      "stateMutability": "view",
      "type": "function"
    },
    {
      "inputs": [
        {
          "internalType": "uint256",
          "name": "tokenId",
          "type": "uint256"
        }
      ],
      "name": "getApproved",
      "outputs": [
        {
          "internalType": "address",
          "name": "",
          "type": "address"
        }
      ],
      "stateMutability": "view",
      "type": "function"
    },
    {
      "inputs": [
        {
          "internalType": "address",
          "name": "owner",
          "type": "address"
        },
        {
          "internalType": "address",
          "name": "operator",
          "type": "address"
        }
      ],
      "name": "isApprovedForAll",
      "outputs": [
        {
          "internalType": "bool",
          "name": "",
          "type": "bool"
        }
      ],
      "stateMutability": "view",
      "type": "function"
    },
    {
      "inputs": [
        {
          "internalType": "uint256",
          "name": "tokenId",
          "type": "uint256"
        }
      ],
      "name": "mint",
      "outputs": [],
      "stateMutability": "nonpayable",
      "type": "function"
    },
    {
      "inputs": [],
      "name": "name",
      "outputs": [
        {
          "internalType": "string",
          "name": "",
          "type": "string"
        }
      ],
      "stateMutability": "view",
      "type": "function"
    },
    {
      "inputs": [
        {
          "internalType": "uint256",
          "name": "tokenId",
          "type": "uint256"
        }
      ],
      "name": "ownerOf",
      "outputs": [
        {
          "internalType": "address",
          "name": "",
          "type": "address"
        }
      ],
      "stateMutability": "view",
      "type": "function"
    },
    {
      "inputs": [
        {
          "internalType": "address",
          "name": "from",
          "type": "address"
        },
        {
          "internalType": "address",
          "name": "to",
          "type": "address"
        },
        {
          "internalType": "uint256",
          "name": "tokenId",
          "type": "uint256"
        }
      ],
      "name": "safeTransferFrom",
      "outputs": [],
      "stateMutability": "nonpayable",
      "type": "function"
    },
    {
      "inputs": [
        {
          "internalType": "address",
          "name": "from",
          "type": "address"
        },
        {
          "internalType": "address",
          "name": "to",
          "type": "address"
        },
        {
          "internalType": "uint256",
          "name": "tokenId",
          "type": "uint256"
        },
        {
          "internalType": "bytes",
          "name": "data",
          "type": "bytes"
        }
      ],
      "name": "safeTransferFrom",
      "outputs": [],
      "stateMutability": "nonpayable",
      "type": "function"
    },
    {
      "inputs": [
        {
          "internalType": "address",
          "name": "operator",
          "type": "address"
        },
        {
          "internalType": "bool",
          "name": "approved",
          "type": "bool"
        }
      ],
      "name": "setApprovalForAll",
      "outputs": [],
      "stateMutability": "nonpayable",
      "type": "function"
    },
    {
      "inputs": [
        {
          "internalType": "bytes4",
          "name": "interfaceId",
          "type": "bytes4"
        }
      ],
      "name": "supportsInterface",
      "outputs": [
        {
          "internalType": "bool",
          "name": "",
          "type": "bool"
        }
      ],
      "stateMutability": "view",
      "type": "function"
    },
    {
      "inputs": [],
      "name": "symbol",
      "outputs": [
        {
          "internalType": "string",
          "name": "",
          "type": "string"
        }
      ],
      "stateMutability": "view",
      "type": "function"
    },
    {
      "inputs": [
        {
          "internalType": "uint256",
          "name": "tokenId",
          "type": "uint256"
        }
      ],
      "name": "tokenURI",
      "outputs": [
        {
          "internalType": "string",
          "name": "",
          "type": "string"
        }
      ],
      "stateMutability": "view",
      "type": "function"
    },
    {
      "inputs": [
        {
          "internalType": "address",
          "name": "from",
          "type": "address"
        },
        {
          "internalType": "address",
          "name": "to",
          "type": "address"
        },
        {
          "internalType": "uint256",
          "name": "tokenId",
          "type": "uint256"
        }
      ],
      "name": "transferFrom",
      "outputs": [],
      "stateMutability": "nonpayable",
      "type": "function"
    }
  ],
  "bytecode": "0x60806040523480156200001157600080fd5b5060405162001884380380620018848339810160408190526200003491620001e1565b8151829082906200004d9060009060208501906200006e565b508051620000639060019060208401906200006e565b505050505062000288565b8280546200007c906200024b565b90600052602060002090601f016020900481019282620000a05760008555620000eb565b82601f10620000bb57805160ff1916838001178555620000eb565b82800160010185558215620000eb579182015b82811115620000eb578251825591602001919060010190620000ce565b50620000f9929150620000fd565b5090565b5b80821115620000f95760008155600101620000fe565b634e487b7160e01b600052604160045260246000fd5b600082601f8301126200013c57600080fd5b81516001600160401b038082111562000159576200015962000114565b604051601f8301601f19908116603f0116810190828211818310171562000184576200018462000114565b81604052838152602092508683858801011115620001a157600080fd5b600091505b83821015620001c55785820183015181830184015290820190620001a6565b83821115620001d75760008385830101525b9695505050505050565b60008060408385031215620001f557600080fd5b82516001600160401b03808211156200020d57600080fd5b6200021b868387016200012a565b935060208501519150808211156200023257600080fd5b5062000241858286016200012a565b9150509250929050565b600181811c908216806200026057607f821691505b602082108114156200028257634e487b7160e01b600052602260045260246000fd5b50919050565b6115ec80620002986000396000f3fe608060405234801561001057600080fd5b50600436106100ea5760003560e01c806370a082311161008c578063a22cb46511610066578063a22cb465146101e1578063b88d4fde146101f4578063c87b56dd14610207578063e985e9c51461021a57600080fd5b806370a08231146101a557806395d89b41146101c6578063a0712d68146101ce57600080fd5b8063095ea7b3116100c8578063095ea7b31461015757806323b872dd1461016c57806342842e0e1461017f5780636352211e1461019257600080fd5b806301ffc9a7146100ef57806306fdde0314610117578063081812fc1461012c575b600080fd5b6101026100fd36600461120f565b610256565b60405190151581526020015b60405180910390f35b61011f6102f3565b60405161010e9190611284565b61013f61013a366004611297565b610385565b6040516001600160a01b03909116815260200161010e565b61016a6101653660046112cc565b6103ac565b005b61016a61017a3660046112f6565b6104e3565b61016a61018d3660046112f6565b61055a565b61013f6101a0366004611297565b610575565b6101b86101b3366004611332565b6105da565b60405190815260200161010e565b61011f610674565b61016a6101dc366004611297565b610683565b61016a6101ef36600461134d565b610690565b61016a61020236600461139f565b61069f565b61011f610215366004611297565b61071d565b61010261022836600461147b565b6001600160a01b03918216600090815260056020908152604080832093909416825291909152205460ff1690565b60006001600160e01b031982167f80ac58cd0000000000000000000000000000000000000000000000000000000014806102b957506001600160e01b031982167f5b5e139f00000000000000000000000000000000000000000000000000000000145b806102ed57507f01ffc9a7000000000000000000000000000000000000000000000000000000006001600160e01b03198316145b92915050565b606060008054610302906114ae565b80601f016020809104026020016040519081016040528092919081815260200182805461032e906114ae565b801561037b5780601f106103505761010080835404028352916020019161037b565b820191906000526020600020905b81548152906001019060200180831161035e57829003601f168201915b5050505050905090565b600061039082610791565b506000908152600460205260409020546001600160a01b031690565b60006103b782610575565b9050806001600160a01b0316836001600160a01b031614156104465760405162461bcd60e51b815260206004820152602160248201527f4552433732313a20617070726f76616c20746f2063757272656e74206f776e6560448201527f720000000000000000000000000000000000000000000000000000000000000060648201526084015b60405180910390fd5b336001600160a01b038216148061046257506104628133610228565b6104d45760405162461bcd60e51b815260206004820152603d60248201527f4552433732313a20617070726f76652063616c6c6572206973206e6f7420746f60448201527f6b656e206f776e6572206f7220617070726f76656420666f7220616c6c000000606482015260840161043d565b6104de83836107f5565b505050565b6104ed3382610870565b61054f5760405162461bcd60e51b815260206004820152602d60248201527f4552433732313a2063616c6c6572206973206e6f7420746f6b656e206f776e6560448201526c1c881bdc88185c1c1c9bdd9959609a1b606482015260840161043d565b6104de8383836108ef565b6104de8383836040518060200160405280600081525061069f565b6000818152600260205260408120546001600160a01b0316806102ed5760405162461bcd60e51b815260206004820152601860248201527f4552433732313a20696e76616c696420746f6b656e2049440000000000000000604482015260640161043d565b60006001600160a01b0382166106585760405162461bcd60e51b815260206004820152602960248201527f4552433732313a2061646472657373207a65726f206973206e6f74206120766160448201527f6c6964206f776e65720000000000000000000000000000000000000000000000606482015260840161043d565b506001600160a01b031660009081526003602052604090205490565b606060018054610302906114ae565b61068d3382610b02565b50565b61069b338383610b1c565b5050565b6106a93383610870565b61070b5760405162461bcd60e51b815260206004820152602d60248201527f4552433732313a2063616c6c6572206973206e6f7420746f6b656e206f776e6560448201526c1c881bdc88185c1c1c9bdd9959609a1b606482015260840161043d565b61071784848484610beb565b50505050565b606061072882610791565b600061073f60408051602081019091526000815290565b9050600081511161075f576040518060200160405280600081525061078a565b8061076984610c69565b60405160200161077a9291906114e9565b6040516020818303038152906040525b9392505050565b6000818152600260205260409020546001600160a01b031661068d5760405162461bcd60e51b815260206004820152601860248201527f4552433732313a20696e76616c696420746f6b656e2049440000000000000000604482015260640161043d565b6000818152600460205260409020805473ffffffffffffffffffffffffffffffffffffffff19166001600160a01b038416908117909155819061083782610575565b6001600160a01b03167f8c5be1e5ebec7d5bd14f71427d1e84f3dd0314c0f7b2291e5b200ac8c7c3b92560405160405180910390a45050565b60008061087c83610575565b9050806001600160a01b0316846001600160a01b031614806108c357506001600160a01b0380821660009081526005602090815260408083209388168352929052205460ff165b806108e75750836001600160a01b03166108dc84610385565b6001600160a01b0316145b949350505050565b826001600160a01b031661090282610575565b6001600160a01b0316146109665760405162461bcd60e51b815260206004820152602560248201527f4552433732313a207472616e736665722066726f6d20696e636f72726563742060448201526437bbb732b960d91b606482015260840161043d565b6001600160a01b0382166109e15760405162461bcd60e51b8152602060048201526024808201527f4552433732313a207472616e7366657220746f20746865207a65726f2061646460448201527f7265737300000000000000000000000000000000000000000000000000000000606482015260840161043d565b6109ee8383836001610d13565b826001600160a01b0316610a0182610575565b6001600160a01b031614610a655760405162461bcd60e51b815260206004820152602560248201527f4552433732313a207472616e736665722066726f6d20696e636f72726563742060448201526437bbb732b960d91b606482015260840161043d565b6000818152600460209081526040808320805473ffffffffffffffffffffffffffffffffffffffff199081169091556001600160a01b0387811680865260038552838620805460001901905590871680865283862080546001019055868652600290945282852080549092168417909155905184937fddf252ad1be2c89b69c2b068fc378daa952ba7f163c4a11628f55a4df523b3ef91a4505050565b61069b828260405180602001604052806000815250610d9b565b816001600160a01b0316836001600160a01b03161415610b7e5760405162461bcd60e51b815260206004820152601960248201527f4552433732313a20617070726f766520746f2063616c6c657200000000000000604482015260640161043d565b6001600160a01b03838116600081815260056020908152604080832094871680845294825291829020805460ff191686151590811790915591519182527f17307eab39ab6107e8899845ad3d59bd9653f200f220920489ca2b5937696c31910160405180910390a3505050565b610bf68484846108ef565b610c0284848484610e19565b6107175760405162461bcd60e51b815260206004820152603260248201527f4552433732313a207472616e7366657220746f206e6f6e20455243373231526560448201527131b2b4bb32b91034b6b83632b6b2b73a32b960711b606482015260840161043d565b60606000610c7683610f71565b600101905060008167ffffffffffffffff811115610c9657610c96611389565b6040519080825280601f01601f191660200182016040528015610cc0576020820181803683370190505b5090508181016020015b600019017f3031323334353637383961626364656600000000000000000000000000000000600a86061a8153600a8504945084610d0657610d0b565b610cca565b509392505050565b6001811115610717576001600160a01b03841615610d59576001600160a01b03841660009081526003602052604081208054839290610d5390849061152e565b90915550505b6001600160a01b03831615610717576001600160a01b03831660009081526003602052604081208054839290610d90908490611545565b909155505050505050565b610da58383611053565b610db26000848484610e19565b6104de5760405162461bcd60e51b815260206004820152603260248201527f4552433732313a207472616e7366657220746f206e6f6e20455243373231526560448201527131b2b4bb32b91034b6b83632b6b2b73a32b960711b606482015260840161043d565b60006001600160a01b0384163b15610f6657604051630a85bd0160e11b81526001600160a01b0385169063150b7a0290610e5d90339089908890889060040161155d565b602060405180830381600087803b158015610e7757600080fd5b505af1925050508015610ea7575060408051601f3d908101601f19168201909252610ea491810190611599565b60015b610f4c573d808015610ed5576040519150601f19603f3d011682016040523d82523d6000602084013e610eda565b606091505b508051610f445760405162461bcd60e51b815260206004820152603260248201527f4552433732313a207472616e7366657220746f206e6f6e20455243373231526560448201527131b2b4bb32b91034b6b83632b6b2b73a32b960711b606482015260840161043d565b805181602001fd5b6001600160e01b031916630a85bd0160e11b1490506108e7565b506001949350505050565b6000807a184f03e93ff9f4daa797ed6e38ed64bf6a1f0100000000000000008310610fba577a184f03e93ff9f4daa797ed6e38ed64bf6a1f010000000000000000830492506040015b6d04ee2d6d415b85acef81000000008310610fe6576d04ee2d6d415b85acef8100000000830492506020015b662386f26fc10000831061100457662386f26fc10000830492506010015b6305f5e100831061101c576305f5e100830492506008015b612710831061103057612710830492506004015b60648310611042576064830492506002015b600a83106102ed5760010192915050565b6001600160a01b0382166110a95760405162461bcd60e51b815260206004820181905260248201527f4552433732313a206d696e7420746f20746865207a65726f2061646472657373604482015260640161043d565b6000818152600260205260409020546001600160a01b03161561110e5760405162461bcd60e51b815260206004820152601c60248201527f4552433732313a20746f6b656e20616c7265616479206d696e74656400000000604482015260640161043d565b61111c600083836001610d13565b6000818152600260205260409020546001600160a01b0316156111815760405162461bcd60e51b815260206004820152601c60248201527f4552433732313a20746f6b656e20616c7265616479206d696e74656400000000604482015260640161043d565b6001600160a01b0382166000818152600360209081526040808320805460010190558483526002909152808220805473ffffffffffffffffffffffffffffffffffffffff19168417905551839291907fddf252ad1be2c89b69c2b068fc378daa952ba7f163c4a11628f55a4df523b3ef908290a45050565b6001600160e01b03198116811461068d57600080fd5b60006020828403121561122157600080fd5b813561078a816111f9565b60005b8381101561124757818101518382015260200161122f565b838111156107175750506000910152565b6000815180845261127081602086016020860161122c565b601f01601f19169290920160200192915050565b60208152600061078a6020830184611258565b6000602082840312156112a957600080fd5b5035919050565b80356001600160a01b03811681146112c757600080fd5b919050565b600080604083850312156112df57600080fd5b6112e8836112b0565b946020939093013593505050565b60008060006060848603121561130b57600080fd5b611314846112b0565b9250611322602085016112b0565b9150604084013590509250925092565b60006020828403121561134457600080fd5b61078a826112b0565b6000806040838503121561136057600080fd5b611369836112b0565b91506020830135801515811461137e57600080fd5b809150509250929050565b634e487b7160e01b600052604160045260246000fd5b600080600080608085870312156113b557600080fd5b6113be856112b0565b93506113cc602086016112b0565b925060408501359150606085013567ffffffffffffffff808211156113f057600080fd5b818701915087601f83011261140457600080fd5b81358181111561141657611416611389565b604051601f8201601f19908116603f0116810190838211818310171561143e5761143e611389565b816040528281528a602084870101111561145757600080fd5b82602086016020830137600060208483010152809550505050505092959194509250565b6000806040838503121561148e57600080fd5b611497836112b0565b91506114a5602084016112b0565b90509250929050565b600181811c908216806114c257607f821691505b602082108114156114e357634e487b7160e01b600052602260045260246000fd5b50919050565b600083516114fb81846020880161122c565b83519083019061150f81836020880161122c565b01949350505050565b634e487b7160e01b600052601160045260246000fd5b60008282101561154057611540611518565b500390565b6000821982111561155857611558611518565b500190565b60006001600160a01b0380871683528086166020840152508360408301526080606083015261158f6080830184611258565b9695505050505050565b6000602082840312156115ab57600080fd5b815161078a816111f956fea26469706673582212203575a5822cae8f10347f579130b5debd1ff7c4b075ed3fd879044b1a271013e564736f6c63430008090033",
  "linkReferences": {},
  "deployedLinkReferences": {}
}