{
  "_format": "hh-sol-artifact-1",
  "contractName": "NftLinker",
  "sourceName": "examples/evm/nft-linker/NftLinker.sol",
  "abi": [
    {
      "inputs": [
        {
          "internalType": "address",
          "name": "gateway_",
          "type": "address"
        },
        {
          "internalType": "address",
          "name": "gasReceiver_",
          "type": "address"
        }
      ],
      "stateMutability": "nonpayable",
      "type": "constructor"
    },
    {
      "inputs": [],
      "name": "AlreadyInitialized",
      "type": "error"
    },
    {
      "inputs": [],
      "name": "InvalidAddress",
      "type": "error"
    },
    {
      "inputs": [],
      "name": "InvalidAddressString",
      "type": "error"
    },
    {
      "inputs": [],
      "name": "InvalidCodeHash",
      "type": "error"
    },
    {
      "inputs": [],
      "name": "InvalidImplementation",
      "type": "error"
    },
    {
      "inputs": [],
      "name": "InvalidOwner",
      "type": "error"
    },
    {
      "inputs": [],
      "name": "NotApprovedByGateway",
      "type": "error"
    },
    {
      "inputs": [],
      "name": "NotOwner",
      "type": "error"
    },
    {
      "inputs": [],
      "name": "NotProxy",
      "type": "error"
    },
    {
      "inputs": [],
      "name": "SetupFailed",
      "type": "error"
    },
    {
      "anonymous": false,
      "inputs": [
        {
          "indexed": true,
          "internalType": "address",
          "name": "owner",
          "type": "address"
        },
        {
          "indexed": true,
          "internalType": "address",
          "name": "approved",
          "type": "address"
        },
        {
          "indexed": true,
          "internalType": "uint256",
          "name": "tokenId",
          "type": "uint256"
        }
      ],
      "name": "Approval",
      "type": "event"
    },
    {
      "anonymous": false,
      "inputs": [
        {
          "indexed": true,
          "internalType": "address",
          "name": "owner",
          "type": "address"
        },
        {
          "indexed": true,
          "internalType": "address",
          "name": "operator",
          "type": "address"
        },
        {
          "indexed": false,
          "internalType": "bool",
          "name": "approved",
          "type": "bool"
        }
      ],
      "name": "ApprovalForAll",
      "type": "event"
    },
    {
      "anonymous": false,
      "inputs": [
        {
          "indexed": true,
          "internalType": "address",
          "name": "newOwner",
          "type": "address"
        }
      ],
      "name": "OwnershipTransferStarted",
      "type": "event"
    },
    {
      "anonymous": false,
      "inputs": [
        {
          "indexed": true,
          "internalType": "address",
          "name": "newOwner",
          "type": "address"
        }
      ],
      "name": "OwnershipTransferred",
      "type": "event"
    },
    {
      "anonymous": false,
      "inputs": [
        {
          "indexed": true,
          "internalType": "address",
          "name": "from",
          "type": "address"
        },
        {
          "indexed": true,
          "internalType": "address",
          "name": "to",
          "type": "address"
        },
        {
          "indexed": true,
          "internalType": "uint256",
          "name": "tokenId",
          "type": "uint256"
        }
      ],
      "name": "Transfer",
      "type": "event"
    },
    {
      "anonymous": false,
      "inputs": [
        {
          "indexed": true,
          "internalType": "address",
          "name": "newImplementation",
          "type": "address"
        }
      ],
      "name": "Upgraded",
      "type": "event"
    },
    {
      "inputs": [],
      "name": "acceptOwnership",
      "outputs": [],
      "stateMutability": "nonpayable",
      "type": "function"
    },
    {
      "inputs": [
        {
          "internalType": "address",
          "name": "to",
          "type": "address"
        },
        {
          "internalType": "uint256",
          "name": "tokenId",
          "type": "uint256"
        }
      ],
      "name": "approve",
      "outputs": [],
      "stateMutability": "nonpayable",
      "type": "function"
    },
    {
      "inputs": [
        {
          "internalType": "address",
          "name": "owner",
          "type": "address"
        }
      ],
      "name": "balanceOf",
      "outputs": [
        {
          "internalType": "uint256",
          "name": "",
          "type": "uint256"
        }
      ],
      "stateMutability": "view",
      "type": "function"
    },
    {
      "inputs": [],
      "name": "chainName",
      "outputs": [
        {
          "internalType": "string",
          "name": "",
          "type": "string"
        }
      ],
      "stateMutability": "view",
      "type": "function"
    },
    {
      "inputs": [],
      "name": "contractId",
      "outputs": [
        {
          "internalType": "bytes32",
          "name": "",
          "type": "bytes32"
        }
      ],
      "stateMutability": "pure",
      "type": "function"
    },
    {
      "inputs": [
        {
          "internalType": "bytes32",
          "name": "commandId",
          "type": "bytes32"
        },
        {
          "internalType": "string",
          "name": "sourceChain",
          "type": "string"
        },
        {
          "internalType": "string",
          "name": "sourceAddress",
          "type": "string"
        },
        {
          "internalType": "bytes",
          "name": "payload",
          "type": "bytes"
        }
      ],
      "name": "execute",
      "outputs": [],
      "stateMutability": "nonpayable",
      "type": "function"
    },
    {
      "inputs": [
        {
          "internalType": "bytes32",
          "name": "commandId",
          "type": "bytes32"
        },
        {
          "internalType": "string",
          "name": "sourceChain",
          "type": "string"
        },
        {
          "internalType": "string",
          "name": "sourceAddress",
          "type": "string"
        },
        {
          "internalType": "bytes",
          "name": "payload",
          "type": "bytes"
        },
        {
          "internalType": "string",
          "name": "tokenSymbol",
          "type": "string"
        },
        {
          "internalType": "uint256",
          "name": "amount",
          "type": "uint256"
        }
      ],
      "name": "executeWithToken",
      "outputs": [],
      "stateMutability": "nonpayable",
      "type": "function"
    },
    {
      "inputs": [],
      "name": "gasService",
      "outputs": [
        {
          "internalType": "contract IAxelarGasService",
          "name": "",
          "type": "address"
        }
      ],
      "stateMutability": "view",
      "type": "function"
    },
    {
      "inputs": [],
      "name": "gateway",
      "outputs": [
        {
          "internalType": "contract IAxelarGateway",
          "name": "",
          "type": "address"
        }
      ],
      "stateMutability": "view",
      "type": "function"
    },
    {
      "inputs": [
        {
          "internalType": "uint256",
          "name": "tokenId",
          "type": "uint256"
        }
      ],
      "name": "getApproved",
      "outputs": [
        {
          "internalType": "address",
          "name": "",
          "type": "address"
        }
      ],
      "stateMutability": "view",
      "type": "function"
    },
    {
      "inputs": [],
      "name": "implementation",
      "outputs": [
        {
          "internalType": "address",
          "name": "implementation_",
          "type": "address"
        }
      ],
      "stateMutability": "view",
      "type": "function"
    },
    {
      "inputs": [
        {
          "internalType": "address",
          "name": "owner",
          "type": "address"
        },
        {
          "internalType": "address",
          "name": "operator",
          "type": "address"
        }
      ],
      "name": "isApprovedForAll",
      "outputs": [
        {
          "internalType": "bool",
          "name": "",
          "type": "bool"
        }
      ],
      "stateMutability": "view",
      "type": "function"
    },
    {
      "inputs": [],
      "name": "name",
      "outputs": [
        {
          "internalType": "string",
          "name": "",
          "type": "string"
        }
      ],
      "stateMutability": "view",
      "type": "function"
    },
    {
      "inputs": [
        {
          "internalType": "uint256",
          "name": "",
          "type": "uint256"
        }
      ],
      "name": "original",
      "outputs": [
        {
          "internalType": "bytes",
          "name": "",
          "type": "bytes"
        }
      ],
      "stateMutability": "view",
      "type": "function"
    },
    {
      "inputs": [],
      "name": "owner",
      "outputs": [
        {
          "internalType": "address",
          "name": "owner_",
          "type": "address"
        }
      ],
      "stateMutability": "view",
      "type": "function"
    },
    {
      "inputs": [
        {
          "internalType": "uint256",
          "name": "tokenId",
          "type": "uint256"
        }
      ],
      "name": "ownerOf",
      "outputs": [
        {
          "internalType": "address",
          "name": "",
          "type": "address"
        }
      ],
      "stateMutability": "view",
      "type": "function"
    },
    {
      "inputs": [],
      "name": "pendingOwner",
      "outputs": [
        {
          "internalType": "address",
          "name": "owner_",
          "type": "address"
        }
      ],
      "stateMutability": "view",
      "type": "function"
    },
    {
      "inputs": [
        {
          "internalType": "address",
          "name": "from",
          "type": "address"
        },
        {
          "internalType": "address",
          "name": "to",
          "type": "address"
        },
        {
          "internalType": "uint256",
          "name": "tokenId",
          "type": "uint256"
        }
      ],
      "name": "safeTransferFrom",
      "outputs": [],
      "stateMutability": "nonpayable",
      "type": "function"
    },
    {
      "inputs": [
        {
          "internalType": "address",
          "name": "from",
          "type": "address"
        },
        {
          "internalType": "address",
          "name": "to",
          "type": "address"
        },
        {
          "internalType": "uint256",
          "name": "tokenId",
          "type": "uint256"
        },
        {
          "internalType": "bytes",
          "name": "data",
          "type": "bytes"
        }
      ],
      "name": "safeTransferFrom",
      "outputs": [],
      "stateMutability": "nonpayable",
      "type": "function"
    },
    {
      "inputs": [
        {
          "internalType": "address",
          "name": "operator",
          "type": "address"
        },
        {
          "internalType": "uint256",
          "name": "tokenId",
          "type": "uint256"
        },
        {
          "internalType": "string",
          "name": "destinationChain",
          "type": "string"
        },
        {
          "internalType": "address",
          "name": "destinationAddress",
          "type": "address"
        }
      ],
      "name": "sendNFT",
      "outputs": [],
      "stateMutability": "payable",
      "type": "function"
    },
    {
      "inputs": [
        {
          "internalType": "address",
          "name": "operator",
          "type": "address"
        },
        {
          "internalType": "bool",
          "name": "approved",
          "type": "bool"
        }
      ],
      "name": "setApprovalForAll",
      "outputs": [],
      "stateMutability": "nonpayable",
      "type": "function"
    },
    {
      "inputs": [
        {
          "internalType": "bytes",
          "name": "data",
          "type": "bytes"
        }
      ],
      "name": "setup",
      "outputs": [],
      "stateMutability": "nonpayable",
      "type": "function"
    },
    {
      "inputs": [
        {
          "internalType": "bytes4",
          "name": "interfaceId",
          "type": "bytes4"
        }
      ],
      "name": "supportsInterface",
      "outputs": [
        {
          "internalType": "bool",
          "name": "",
          "type": "bool"
        }
      ],
      "stateMutability": "view",
      "type": "function"
    },
    {
      "inputs": [],
      "name": "symbol",
      "outputs": [
        {
          "internalType": "string",
          "name": "",
          "type": "string"
        }
      ],
      "stateMutability": "view",
      "type": "function"
    },
    {
      "inputs": [
        {
          "internalType": "uint256",
          "name": "tokenId",
          "type": "uint256"
        }
      ],
      "name": "tokenURI",
      "outputs": [
        {
          "internalType": "string",
          "name": "",
          "type": "string"
        }
      ],
      "stateMutability": "view",
      "type": "function"
    },
    {
      "inputs": [
        {
          "internalType": "address",
          "name": "from",
          "type": "address"
        },
        {
          "internalType": "address",
          "name": "to",
          "type": "address"
        },
        {
          "internalType": "uint256",
          "name": "tokenId",
          "type": "uint256"
        }
      ],
      "name": "transferFrom",
      "outputs": [],
      "stateMutability": "nonpayable",
      "type": "function"
    },
    {
      "inputs": [
        {
          "internalType": "address",
          "name": "newOwner",
          "type": "address"
        }
      ],
      "name": "transferOwnership",
      "outputs": [],
      "stateMutability": "nonpayable",
      "type": "function"
    },
    {
      "inputs": [
        {
          "internalType": "address",
          "name": "newImplementation",
          "type": "address"
        },
        {
          "internalType": "bytes32",
          "name": "newImplementationCodeHash",
          "type": "bytes32"
        },
        {
          "internalType": "bytes",
          "name": "params",
          "type": "bytes"
        }
      ],
      "name": "upgrade",
      "outputs": [],
      "stateMutability": "nonpayable",
      "type": "function"
    }
  ],
  "bytecode": "0x60c06040523480156200001157600080fd5b506040516200377c3803806200377c8339810160408190526200003491620001a6565b604080518082018252601181527020bc32b630b91027232a102634b735b2b960791b60208083019182528351808501909452600384526210539360ea1b908401528151859391620000899160009190620000e3565b5080516200009f906001906020840190620000e3565b5050506001600160a01b038116620000ca5760405163e6c4247b60e01b815260040160405180910390fd5b6001600160a01b039081166080521660a052506200021b565b828054620000f190620001de565b90600052602060002090601f01602090048101928262000115576000855562000160565b82601f106200013057805160ff191683800117855562000160565b8280016001018555821562000160579182015b828111156200016057825182559160200191906001019062000143565b506200016e92915062000172565b5090565b5b808211156200016e576000815560010162000173565b80516001600160a01b0381168114620001a157600080fd5b919050565b60008060408385031215620001ba57600080fd5b620001c58362000189565b9150620001d56020840162000189565b90509250929050565b600181811c90821680620001f357607f821691505b602082108114156200021557634e487b7160e01b600052602260045260246000fd5b50919050565b60805160a0516135116200026b6000396000818161039c01528181611a230152611b6101526000818161027f015281816108c401528181610aef01528181611abc0152611bfa01526135116000f3fe6080604052600436106101b75760003560e01c8063717eb03f116100ec578063a22cb4651161008a578063c87b56dd11610064578063c87b56dd14610530578063e30c397814610550578063e985e9c514610584578063f2fde38b146105cd57600080fd5b8063a22cb465146104d0578063a3499c73146104f0578063b88d4fde1461051057600080fd5b80638da5cb5b116100c65780638da5cb5b14610454578063933498761461048857806395d89b411461049b5780639ded06df146104b057600080fd5b8063717eb03f146103ec57806379ba50971461040c5780638291286c1461042157600080fd5b806323b872dd116101595780635c60da1b116101335780635c60da1b146103365780636352211e1461036a5780636a22d8cc1461038a57806370a08231146103be57600080fd5b806323b872dd146102d657806342842e0e146102f6578063491606581461031657600080fd5b8063095ea7b311610195578063095ea7b31461024b578063116191b61461026d5780631a98b2e0146102a15780631c93b03a146102c157600080fd5b806301ffc9a7146101bc57806306fdde03146101f1578063081812fc14610213575b600080fd5b3480156101c857600080fd5b506101dc6101d73660046128fa565b6105ed565b60405190151581526020015b60405180910390f35b3480156101fd57600080fd5b5061020661068a565b6040516101e8919061296f565b34801561021f57600080fd5b5061023361022e366004612982565b61071c565b6040516001600160a01b0390911681526020016101e8565b34801561025757600080fd5b5061026b6102663660046129b0565b610743565b005b34801561027957600080fd5b506102337f000000000000000000000000000000000000000000000000000000000000000081565b3480156102ad57600080fd5b5061026b6102bc366004612a25565b61087a565b3480156102cd57600080fd5b50610206610985565b3480156102e257600080fd5b5061026b6102f1366004612aff565b610a13565b34801561030257600080fd5b5061026b610311366004612aff565b610a8a565b34801561032257600080fd5b5061026b610331366004612b40565b610aa5565b34801561034257600080fd5b507f360894a13ba1a3210667c828492db98dca3e2076cc3735a920a3ca505d382bbc54610233565b34801561037657600080fd5b50610233610385366004612982565b610bb5565b34801561039657600080fd5b506102337f000000000000000000000000000000000000000000000000000000000000000081565b3480156103ca57600080fd5b506103de6103d9366004612be4565b610c1a565b6040519081526020016101e8565b3480156103f857600080fd5b50610206610407366004612982565b610cb4565b34801561041857600080fd5b5061026b610ccd565b34801561042d57600080fd5b507f6fd43e7cffc31bb581d7421c8698e29aa2bd8e7186a394b85299908b4eb9b1756103de565b34801561046057600080fd5b507f02016836a56b71f0d02689e69e326f4f4c1b9057164ef592671cf0d37c8040c054610233565b61026b610496366004612cce565b610db7565b3480156104a757600080fd5b50610206610ec0565b3480156104bc57600080fd5b5061026b6104cb366004612d3a565b610ecf565b3480156104dc57600080fd5b5061026b6104eb366004612d8a565b610f48565b3480156104fc57600080fd5b5061026b61050b366004612dc3565b610f53565b34801561051c57600080fd5b5061026b61052b366004612e1f565b611257565b34801561053c57600080fd5b5061020661054b366004612982565b6112cf565b34801561055c57600080fd5b507f9855384122b55936fbfb8ca5120e63c6537a1ac40caf6ae33502b3c5da8c87d154610233565b34801561059057600080fd5b506101dc61059f366004612e9f565b6001600160a01b03918216600090815260056020908152604080832093909416825291909152205460ff1690565b3480156105d957600080fd5b5061026b6105e8366004612be4565b611343565b60006001600160e01b031982167f80ac58cd00000000000000000000000000000000000000000000000000000000148061065057506001600160e01b031982167f5b5e139f00000000000000000000000000000000000000000000000000000000145b8061068457507f01ffc9a7000000000000000000000000000000000000000000000000000000006001600160e01b03198316145b92915050565b60606000805461069990612ecd565b80601f01602080910402602001604051908101604052809291908181526020018280546106c590612ecd565b80156107125780601f106106e757610100808354040283529160200191610712565b820191906000526020600020905b8154815290600101906020018083116106f557829003601f168201915b5050505050905090565b6000610727826113eb565b506000908152600460205260409020546001600160a01b031690565b600061074e82610bb5565b9050806001600160a01b0316836001600160a01b031614156107dd5760405162461bcd60e51b815260206004820152602160248201527f4552433732313a20617070726f76616c20746f2063757272656e74206f776e6560448201527f720000000000000000000000000000000000000000000000000000000000000060648201526084015b60405180910390fd5b336001600160a01b03821614806107f957506107f9813361059f565b61086b5760405162461bcd60e51b815260206004820152603d60248201527f4552433732313a20617070726f76652063616c6c6572206973206e6f7420746f60448201527f6b656e206f776e6572206f7220617070726f76656420666f7220616c6c00000060648201526084016107d4565b6108758383611452565b505050565b6000858560405161088c929190612f08565b6040519081900381207f1876eed900000000000000000000000000000000000000000000000000000000825291506001600160a01b037f00000000000000000000000000000000000000000000000000000000000000001690631876eed990610909908e908e908e908e908e9089908d908d908d90600401612f41565b602060405180830381600087803b15801561092357600080fd5b505af1158015610937573d6000803e3d6000fd5b505050506040513d601f19601f8201168201806040525081019061095b9190612fa0565b61097857604051631403112d60e21b815260040160405180910390fd5b5050505050505050505050565b6007805461099290612ecd565b80601f01602080910402602001604051908101604052809291908181526020018280546109be90612ecd565b8015610a0b5780601f106109e057610100808354040283529160200191610a0b565b820191906000526020600020905b8154815290600101906020018083116109ee57829003601f168201915b505050505081565b610a1d33826114cd565b610a7f5760405162461bcd60e51b815260206004820152602d60248201527f4552433732313a2063616c6c6572206973206e6f7420746f6b656e206f776e6560448201526c1c881bdc88185c1c1c9bdd9959609a1b60648201526084016107d4565b61087583838361154c565b61087583838360405180602001604052806000815250611257565b60008282604051610ab7929190612f08565b6040519081900381207f5f6970c300000000000000000000000000000000000000000000000000000000825291506001600160a01b037f00000000000000000000000000000000000000000000000000000000000000001690635f6970c390610b2e908b908b908b908b908b908990600401612fbd565b602060405180830381600087803b158015610b4857600080fd5b505af1158015610b5c573d6000803e3d6000fd5b505050506040513d601f19601f82011682018060405250810190610b809190612fa0565b610b9d57604051631403112d60e21b815260040160405180910390fd5b610bab87878787878761175f565b5050505050505050565b6000818152600260205260408120546001600160a01b0316806106845760405162461bcd60e51b815260206004820152601860248201527f4552433732313a20696e76616c696420746f6b656e204944000000000000000060448201526064016107d4565b60006001600160a01b038216610c985760405162461bcd60e51b815260206004820152602960248201527f4552433732313a2061646472657373207a65726f206973206e6f74206120766160448201527f6c6964206f776e6572000000000000000000000000000000000000000000000060648201526084016107d4565b506001600160a01b031660009081526003602052604090205490565b6006602052600090815260409020805461099290612ecd565b6000610cf77f9855384122b55936fbfb8ca5120e63c6537a1ac40caf6ae33502b3c5da8c87d15490565b90506001600160a01b0381163314610d3b576040517f49e27cff00000000000000000000000000000000000000000000000000000000815260040160405180910390fd5b6040516001600160a01b038216907f04dba622d284ed0014ee4b9a6a68386be1a4c08a4913ae272de89199cc68616390600090a260007f9855384122b55936fbfb8ca5120e63c6537a1ac40caf6ae33502b3c5da8c87d1557f02016836a56b71f0d02689e69e326f4f4c1b9057164ef592671cf0d37c8040c055565b6001600160a01b038416301415610e385733610dd284610bb5565b6001600160a01b031614610e285760405162461bcd60e51b815260206004820152600e60248201527f4e4f545f594f55525f544f4b454e00000000000000000000000000000000000060448201526064016107d4565b610e3383838361192c565b610eba565b6001600160a01b0384166323b872dd336040516001600160e01b031960e084901b1681526001600160a01b03909116600482015230602482015260448101869052606401600060405180830381600087803b158015610e9657600080fd5b505af1158015610eaa573d6000803e3d6000fd5b50505050610eba84848484611b26565b50505050565b60606001805461069990612ecd565b6000610ef97f360894a13ba1a3210667c828492db98dca3e2076cc3735a920a3ca505d382bbc5490565b6001600160a01b03161415610f3a576040517fbf10dd3a00000000000000000000000000000000000000000000000000000000815260040160405180910390fd5b610f448282611c64565b5050565b610f44338383611ccd565b33610f7c7f02016836a56b71f0d02689e69e326f4f4c1b9057164ef592671cf0d37c8040c05490565b6001600160a01b031614610fa3576040516330cd747160e01b815260040160405180910390fd5b306001600160a01b0316638291286c6040518163ffffffff1660e01b815260040160206040518083038186803b158015610fdc57600080fd5b505afa158015610ff0573d6000803e3d6000fd5b505050506040513d601f19601f820116820180604052508101906110149190612ffe565b846001600160a01b0316638291286c6040518163ffffffff1660e01b815260040160206040518083038186803b15801561104d57600080fd5b505afa158015611061573d6000803e3d6000fd5b505050506040513d601f19601f820116820180604052508101906110859190612ffe565b146110bc576040517f68155f9a00000000000000000000000000000000000000000000000000000000815260040160405180910390fd5b836001600160a01b03163f83146110ff576040517f8f84fb2400000000000000000000000000000000000000000000000000000000815260040160405180910390fd5b80156111fc576000846001600160a01b0316639ded06df60e01b848460405160240161112c929190613017565b60408051601f198184030181529181526020820180517bffffffffffffffffffffffffffffffffffffffffffffffffffffffff166001600160e01b031990941693909317909252905161117f919061302b565b600060405180830381855af49150503d80600081146111ba576040519150601f19603f3d011682016040523d82523d6000602084013e6111bf565b606091505b50509050806111fa576040517f97905dfb00000000000000000000000000000000000000000000000000000000815260040160405180910390fd5b505b6040516001600160a01b038516907fbc7cd75a20ee27fd9adebab32041f755214dbc6bffa90cc0225b39da2e5c2d3b90600090a25050507f360894a13ba1a3210667c828492db98dca3e2076cc3735a920a3ca505d382bbc55565b61126133836114cd565b6112c35760405162461bcd60e51b815260206004820152602d60248201527f4552433732313a2063616c6c6572206973206e6f7420746f6b656e206f776e6560448201526c1c881bdc88185c1c1c9bdd9959609a1b60648201526084016107d4565b610eba84848484611d9c565b60606112da826113eb565b60006112f160408051602081019091526000815290565b90506000815111611311576040518060200160405280600081525061133c565b8061131b84611e1a565b60405160200161132c929190613047565b6040516020818303038152906040525b9392505050565b3361136c7f02016836a56b71f0d02689e69e326f4f4c1b9057164ef592671cf0d37c8040c05490565b6001600160a01b031614611393576040516330cd747160e01b815260040160405180910390fd5b6040516001600160a01b038216907fd9be0e8e07417e00f2521db636cb53e316fd288f5051f16d2aa2bf0c3938a87690600090a27f9855384122b55936fbfb8ca5120e63c6537a1ac40caf6ae33502b3c5da8c87d155565b6000818152600260205260409020546001600160a01b031661144f5760405162461bcd60e51b815260206004820152601860248201527f4552433732313a20696e76616c696420746f6b656e204944000000000000000060448201526064016107d4565b50565b6000818152600460205260409020805473ffffffffffffffffffffffffffffffffffffffff19166001600160a01b038416908117909155819061149482610bb5565b6001600160a01b03167f8c5be1e5ebec7d5bd14f71427d1e84f3dd0314c0f7b2291e5b200ac8c7c3b92560405160405180910390a45050565b6000806114d983610bb5565b9050806001600160a01b0316846001600160a01b0316148061152057506001600160a01b0380821660009081526005602090815260408083209388168352929052205460ff165b806115445750836001600160a01b03166115398461071c565b6001600160a01b0316145b949350505050565b826001600160a01b031661155f82610bb5565b6001600160a01b0316146115c35760405162461bcd60e51b815260206004820152602560248201527f4552433732313a207472616e736665722066726f6d20696e636f72726563742060448201526437bbb732b960d91b60648201526084016107d4565b6001600160a01b03821661163e5760405162461bcd60e51b8152602060048201526024808201527f4552433732313a207472616e7366657220746f20746865207a65726f2061646460448201527f726573730000000000000000000000000000000000000000000000000000000060648201526084016107d4565b61164b8383836001611ec4565b826001600160a01b031661165e82610bb5565b6001600160a01b0316146116c25760405162461bcd60e51b815260206004820152602560248201527f4552433732313a207472616e736665722066726f6d20696e636f72726563742060448201526437bbb732b960d91b60648201526084016107d4565b6000818152600460209081526040808320805473ffffffffffffffffffffffffffffffffffffffff199081169091556001600160a01b0387811680865260038552838620805460001901905590871680865283862080546001019055868652600290945282852080549092168417909155905184937fddf252ad1be2c89b69c2b068fc378daa952ba7f163c4a11628f55a4df523b3ef91a4505050565b306001600160a01b03166117a885858080601f016020809104026020016040519081016040528093929190818152602001838380828437600092019190915250611f4c92505050565b6001600160a01b0316146117fe5760405162461bcd60e51b815260206004820152600c60248201527f4e4f545f415f4c494e4b4552000000000000000000000000000000000000000060448201526064016107d4565b600080808061180f85870187613076565b9350935093509350600760405161182691906130d7565b6040518091039020848051906020012014156118c2576040517f23b872dd0000000000000000000000000000000000000000000000000000000081523060048201526001600160a01b038281166024830152604482018490528416906323b872dd90606401600060405180830381600087803b1580156118a557600080fd5b505af11580156118b9573d6000803e3d6000fd5b50505050611920565b60008484846040516020016118d993929190613149565b60408051601f1981840301815291815281516020808401918220600081815260069092529290208351939450919261191292919061284b565b5061191d83826120cb565b50505b50505050505050505050565b611935836120e5565b600083815260066020526040812080548291829161195290612ecd565b80601f016020809104026020016040519081016040528092919081815260200182805461197e90612ecd565b80156119cb5780601f106119a0576101008083540402835291602001916119cb565b820191906000526020600020905b8154815290600101906020018083116119ae57829003601f168201915b50505050508060200190518101906119e39190613177565b925092509250600083838387604051602001611a02949392919061320e565b60408051601f1981840301815291905290506000611a1f30612195565b90507f00000000000000000000000000000000000000000000000000000000000000006001600160a01b0316630c93e3bb34308a8587336040518763ffffffff1660e01b8152600401611a7695949392919061324a565b6000604051808303818588803b158015611a8f57600080fd5b505af1158015611aa3573d6000803e3d6000fd5b5050604051631c92115f60e01b81526001600160a01b037f0000000000000000000000000000000000000000000000000000000000000000169350631c92115f9250611af891508a90859087906004016132a9565b600060405180830381600087803b158015611b1257600080fd5b505af115801561191d573d6000803e3d6000fd5b60006007858584604051602001611b4094939291906132ec565b60408051601f1981840301815291905290506000611b5d30612195565b90507f00000000000000000000000000000000000000000000000000000000000000006001600160a01b0316630c93e3bb3430878587336040518763ffffffff1660e01b8152600401611bb495949392919061324a565b6000604051808303818588803b158015611bcd57600080fd5b505af1158015611be1573d6000803e3d6000fd5b5050604051631c92115f60e01b81526001600160a01b037f0000000000000000000000000000000000000000000000000000000000000000169350631c92115f9250611c3691508790859087906004016132a9565b600060405180830381600087803b158015611c5057600080fd5b505af1158015611920573d6000803e3d6000fd5b6000611c728284018461339f565b905060078054611c8190612ecd565b159050611cba576040517f0dc149f000000000000000000000000000000000000000000000000000000000815260040160405180910390fd5b8051610eba90600790602084019061284b565b816001600160a01b0316836001600160a01b03161415611d2f5760405162461bcd60e51b815260206004820152601960248201527f4552433732313a20617070726f766520746f2063616c6c65720000000000000060448201526064016107d4565b6001600160a01b03838116600081815260056020908152604080832094871680845294825291829020805460ff191686151590811790915591519182527f17307eab39ab6107e8899845ad3d59bd9653f200f220920489ca2b5937696c31910160405180910390a3505050565b611da784848461154c565b611db3848484846123ed565b610eba5760405162461bcd60e51b815260206004820152603260248201527f4552433732313a207472616e7366657220746f206e6f6e20455243373231526560448201527131b2b4bb32b91034b6b83632b6b2b73a32b960711b60648201526084016107d4565b60606000611e2783612545565b600101905060008167ffffffffffffffff811115611e4757611e47612c01565b6040519080825280601f01601f191660200182016040528015611e71576020820181803683370190505b5090508181016020015b600019017f3031323334353637383961626364656600000000000000000000000000000000600a86061a8153600a8504945084611eb757611ebc565b611e7b565b509392505050565b6001811115610eba576001600160a01b03841615611f0a576001600160a01b03841660009081526003602052604081208054839290611f049084906133ea565b90915550505b6001600160a01b03831615610eba576001600160a01b03831660009081526003602052604081208054839290611f41908490613401565b909155505050505050565b6000808290506000808251602a141580611f8c575082600081518110611f7457611f74613419565b6020910101516001600160f81b031916600360fc1b14155b80611fbd575082600181518110611fa557611fa5613419565b6020910101516001600160f81b031916600f60fb1b14155b15611fdb57604051636fa478cf60e11b815260040160405180910390fd5b60025b602a8110156120c157838181518110611ff957611ff9613419565b016020015160f81c915060618210801590612018575060668260ff1611155b1561202f5761202860578361342f565b9150612098565b60418260ff1610158015612047575060468260ff1611155b156120575761202860378361342f565b60308260ff161015801561206f575060398260ff1611155b1561207f5761202860308361342f565b604051636fa478cf60e11b815260040160405180910390fd5b60026120a58260296133ea565b60ff8416911b1b92909217916120ba81613452565b9050611fde565b5090949350505050565b610f44828260405180602001604052806000815250612627565b60006120f082610bb5565b9050612100816000846001611ec4565b61210982610bb5565b6000838152600460209081526040808320805473ffffffffffffffffffffffffffffffffffffffff199081169091556001600160a01b0385168085526003845282852080546000190190558785526002909352818420805490911690555192935084927fddf252ad1be2c89b69c2b068fc378daa952ba7f163c4a11628f55a4df523b3ef908390a45050565b604051606082811b6bffffffffffffffffffffffff191660208301529060009060340160408051601f198184030181528282528051838301909252601083527f30313233343536373839616263646566000000000000000000000000000000006020840152805190935090919060009061221090600261346d565b61221b906002613401565b67ffffffffffffffff81111561223357612233612c01565b6040519080825280601f01601f19166020018201604052801561225d576020820181803683370190505b509050600360fc1b8160008151811061227857612278613419565b60200101906001600160f81b031916908160001a905350600f60fb1b816001815181106122a7576122a7613419565b60200101906001600160f81b031916908160001a90535060005b838110156123e3578260048683815181106122de576122de613419565b016020015182516001600160f81b031990911690911c60f81c90811061230657612306613419565b01602001516001600160f81b0319168261232183600261346d565b61232c906002613401565b8151811061233c5761233c613419565b60200101906001600160f81b031916908160001a9053508285828151811061236657612366613419565b602091010151815160f89190911c600f1690811061238657612386613419565b01602001516001600160f81b031916826123a183600261346d565b6123ac906003613401565b815181106123bc576123bc613419565b60200101906001600160f81b031916908160001a9053506123dc81613452565b90506122c1565b5095945050505050565b60006001600160a01b0384163b1561253a57604051630a85bd0160e11b81526001600160a01b0385169063150b7a029061243190339089908890889060040161348c565b602060405180830381600087803b15801561244b57600080fd5b505af192505050801561247b575060408051601f3d908101601f19168201909252612478918101906134be565b60015b612520573d8080156124a9576040519150601f19603f3d011682016040523d82523d6000602084013e6124ae565b606091505b5080516125185760405162461bcd60e51b815260206004820152603260248201527f4552433732313a207472616e7366657220746f206e6f6e20455243373231526560448201527131b2b4bb32b91034b6b83632b6b2b73a32b960711b60648201526084016107d4565b805181602001fd5b6001600160e01b031916630a85bd0160e11b149050611544565b506001949350505050565b6000807a184f03e93ff9f4daa797ed6e38ed64bf6a1f010000000000000000831061258e577a184f03e93ff9f4daa797ed6e38ed64bf6a1f010000000000000000830492506040015b6d04ee2d6d415b85acef810000000083106125ba576d04ee2d6d415b85acef8100000000830492506020015b662386f26fc1000083106125d857662386f26fc10000830492506010015b6305f5e10083106125f0576305f5e100830492506008015b612710831061260457612710830492506004015b60648310612616576064830492506002015b600a83106106845760010192915050565b61263183836126a5565b61263e60008484846123ed565b6108755760405162461bcd60e51b815260206004820152603260248201527f4552433732313a207472616e7366657220746f206e6f6e20455243373231526560448201527131b2b4bb32b91034b6b83632b6b2b73a32b960711b60648201526084016107d4565b6001600160a01b0382166126fb5760405162461bcd60e51b815260206004820181905260248201527f4552433732313a206d696e7420746f20746865207a65726f206164647265737360448201526064016107d4565b6000818152600260205260409020546001600160a01b0316156127605760405162461bcd60e51b815260206004820152601c60248201527f4552433732313a20746f6b656e20616c7265616479206d696e7465640000000060448201526064016107d4565b61276e600083836001611ec4565b6000818152600260205260409020546001600160a01b0316156127d35760405162461bcd60e51b815260206004820152601c60248201527f4552433732313a20746f6b656e20616c7265616479206d696e7465640000000060448201526064016107d4565b6001600160a01b0382166000818152600360209081526040808320805460010190558483526002909152808220805473ffffffffffffffffffffffffffffffffffffffff19168417905551839291907fddf252ad1be2c89b69c2b068fc378daa952ba7f163c4a11628f55a4df523b3ef908290a45050565b82805461285790612ecd565b90600052602060002090601f01602090048101928261287957600085556128bf565b82601f1061289257805160ff19168380011785556128bf565b828001600101855582156128bf579182015b828111156128bf5782518255916020019190600101906128a4565b506128cb9291506128cf565b5090565b5b808211156128cb57600081556001016128d0565b6001600160e01b03198116811461144f57600080fd5b60006020828403121561290c57600080fd5b813561133c816128e4565b60005b8381101561293257818101518382015260200161291a565b83811115610eba5750506000910152565b6000815180845261295b816020860160208601612917565b601f01601f19169290920160200192915050565b60208152600061133c6020830184612943565b60006020828403121561299457600080fd5b5035919050565b6001600160a01b038116811461144f57600080fd5b600080604083850312156129c357600080fd5b82356129ce8161299b565b946020939093013593505050565b60008083601f8401126129ee57600080fd5b50813567ffffffffffffffff811115612a0657600080fd5b602083019150836020828501011115612a1e57600080fd5b9250929050565b60008060008060008060008060008060c08b8d031215612a4457600080fd5b8a35995060208b013567ffffffffffffffff80821115612a6357600080fd5b612a6f8e838f016129dc565b909b50995060408d0135915080821115612a8857600080fd5b612a948e838f016129dc565b909950975060608d0135915080821115612aad57600080fd5b612ab98e838f016129dc565b909750955060808d0135915080821115612ad257600080fd5b50612adf8d828e016129dc565b9150809450508092505060a08b013590509295989b9194979a5092959850565b600080600060608486031215612b1457600080fd5b8335612b1f8161299b565b92506020840135612b2f8161299b565b929592945050506040919091013590565b60008060008060008060006080888a031215612b5b57600080fd5b87359650602088013567ffffffffffffffff80821115612b7a57600080fd5b612b868b838c016129dc565b909850965060408a0135915080821115612b9f57600080fd5b612bab8b838c016129dc565b909650945060608a0135915080821115612bc457600080fd5b50612bd18a828b016129dc565b989b979a50959850939692959293505050565b600060208284031215612bf657600080fd5b813561133c8161299b565b634e487b7160e01b600052604160045260246000fd5b604051601f8201601f1916810167ffffffffffffffff81118282101715612c4057612c40612c01565b604052919050565b600067ffffffffffffffff821115612c6257612c62612c01565b50601f01601f191660200190565b6000612c83612c7e84612c48565b612c17565b9050828152838383011115612c9757600080fd5b828260208301376000602084830101529392505050565b600082601f830112612cbf57600080fd5b61133c83833560208501612c70565b60008060008060808587031215612ce457600080fd5b8435612cef8161299b565b935060208501359250604085013567ffffffffffffffff811115612d1257600080fd5b612d1e87828801612cae565b9250506060850135612d2f8161299b565b939692955090935050565b60008060208385031215612d4d57600080fd5b823567ffffffffffffffff811115612d6457600080fd5b612d70858286016129dc565b90969095509350505050565b801515811461144f57600080fd5b60008060408385031215612d9d57600080fd5b8235612da88161299b565b91506020830135612db881612d7c565b809150509250929050565b60008060008060608587031215612dd957600080fd5b8435612de48161299b565b935060208501359250604085013567ffffffffffffffff811115612e0757600080fd5b612e13878288016129dc565b95989497509550505050565b60008060008060808587031215612e3557600080fd5b8435612e408161299b565b93506020850135612e508161299b565b925060408501359150606085013567ffffffffffffffff811115612e7357600080fd5b8501601f81018713612e8457600080fd5b612e9387823560208401612c70565b91505092959194509250565b60008060408385031215612eb257600080fd5b8235612ebd8161299b565b91506020830135612db88161299b565b600181811c90821680612ee157607f821691505b60208210811415612f0257634e487b7160e01b600052602260045260246000fd5b50919050565b8183823760009101908152919050565b81835281816020850137506000828201602090810191909152601f909101601f19169091010190565b89815260c060208201526000612f5b60c083018a8c612f18565b8281036040840152612f6e81898b612f18565b90508660608401528281036080840152612f89818688612f18565b9150508260a08301529a9950505050505050505050565b600060208284031215612fb257600080fd5b815161133c81612d7c565b868152608060208201526000612fd7608083018789612f18565b8281036040840152612fea818688612f18565b915050826060830152979650505050505050565b60006020828403121561301057600080fd5b5051919050565b602081526000611544602083018486612f18565b6000825161303d818460208701612917565b9190910192915050565b60008351613059818460208801612917565b83519083019061306d818360208801612917565b01949350505050565b6000806000806080858703121561308c57600080fd5b843567ffffffffffffffff8111156130a357600080fd5b6130af87828801612cae565b94505060208501356130c08161299b565b9250604085013591506060850135612d2f8161299b565b60008083546130e581612ecd565b600182811680156130fd576001811461310e5761313d565b60ff1984168752828701945061313d565b8760005260208060002060005b858110156131345781548a82015290840190820161311b565b50505082870194505b50929695505050505050565b60608152600061315c6060830186612943565b6001600160a01b039490941660208301525060400152919050565b60008060006060848603121561318c57600080fd5b835167ffffffffffffffff8111156131a357600080fd5b8401601f810186136131b457600080fd5b80516131c2612c7e82612c48565b8181528760208385010111156131d757600080fd5b6131e8826020830160208601612917565b80955050505060208401516131fc8161299b565b80925050604084015190509250925092565b6080815260006132216080830187612943565b6001600160a01b0395861660208401526040830194909452509216606090920191909152919050565b60006001600160a01b03808816835260a0602084015261326d60a0840188612943565b838103604085015261327f8188612943565b905083810360608501526132938187612943565b9250508084166080840152509695505050505050565b6060815260006132bc6060830186612943565b82810360208401526132ce8186612943565b905082810360408401526132e28185612943565b9695505050505050565b6080815260008086546132fe81612ecd565b80608086015260a0600180841660008114613320576001811461333457613365565b60ff1985168884015260c088019550613365565b8b60005260208060002060005b8681101561335c5781548b8201870152908401908201613341565b8a018501975050505b505050506001600160a01b038716602085015250905083604083015261339660608301846001600160a01b03169052565b95945050505050565b6000602082840312156133b157600080fd5b813567ffffffffffffffff8111156133c857600080fd5b61154484828501612cae565b634e487b7160e01b600052601160045260246000fd5b6000828210156133fc576133fc6133d4565b500390565b60008219821115613414576134146133d4565b500190565b634e487b7160e01b600052603260045260246000fd5b600060ff821660ff841680821015613449576134496133d4565b90039392505050565b6000600019821415613466576134666133d4565b5060010190565b6000816000190483118215151615613487576134876133d4565b500290565b60006001600160a01b038087168352808616602084015250836040830152608060608301526132e26080830184612943565b6000602082840312156134d057600080fd5b815161133c816128e456fea264697066735822122034cb1892d823967b4a7d8d9e0ffd542036b89f733250c788dde6715c6089d55164736f6c63430008090033",
  "linkReferences": {},
  "deployedLinkReferences": {}
}